:020000040800F2
:10000000000400203B0F0008490F00084B0F0008B8
:100010004D0F00084F0F0008510F000800000000AE
:10002000000000000000000000000000530F000866
:10003000550F000800000000570F0008590F000876
:100040009D0F00089F0F0008A10F0008A30F0008D4
:10005000A50F0008A70F0008A90F0008AB0F0008A4
:10006000AD0F0008AF0F0008B10F0008B30F000874
:10007000B50F0008B70F0008B90F0008BB0F000844
:10008000BD0F0008BF0F0008C10F00085B0F00087C
:100090005B0F00085B0F00085B0F0008CB0F000828
:1000A000CD0F0008CF0F0008D10F0008D30F0008B4
:1000B000D50F0008D70F0008D90F0008DB0F000884
:1000C000DD0F0008DF0F0008E10F0008E30F000854
:1000D000E50F0008E70F0008E90F0008EB0F000824
:1000E000ED0F0008EF0F0008F10F0008F30F0008F4
:1000F000F50F0008F70F0008F90F0008FB0F0008C4
:10010000FD0F0008FF0F0008011000080310000891
:100110000510000807100008091000080B1000085F
:100120000D1000080F10000811100008131000082F
:1001300000F002F800F03CF80AA090E8000C8244BD
:100140008344AAF10107DA4501D100F031F8AFF29A
:10015000090EBAE80F0013F0010F18BFFB1A43F0A5
:10016000010318470C2B00002C2B0000103A24BF71
:1001700078C878C1FAD8520724BF30C830C144BF0C
:1001800004680C607047000000230024002500264E
:10019000103A28BF78C1FBD8520728BF30C148BFEA
:1001A0000B6070471FB501F078FB1FBD10B510BD87
:1001B00001F039FB1146FFF7F5FF01F063F801F09C
:1001C00057FB03B4FFF7F2FF03BC01F05FFB000035
:1001D00010B50446D648844208D10121042000F01D
:1001E0006FFB0021042000F06BFB46E0D148844205
:1001F00008D10121082000F063FB0021082000F055
:100200005FFB3AE0CC48844208D10121102000F085
:1002100057FB0021102000F053FB2EE0C74884421A
:1002200008D10121202000F04BFB0021202000F00C
:1002300047FB22E0C248844208D10121402000F05F
:100240003FFB0021402000F03BFB16E0BD4884420C
:1002500008D10121802000F033FB0021802000F034
:100260002FFB0AE0B848844207D10121801500F035
:1002700027FB0021A01500F023FB10BD10B50121C4
:10028000084600F01DFB0021012000F019FB10BD05
:100290002DE9F04102464FF000052E462846034660
:1002A0000446074691F803C00CF00F0591F803C00F
:1002B0001CF0100F03D091F802C04CEA0505B1F80C
:1002C00000C01CF0FF0F35D014684FF000002EE086
:1002D0004FF0010C0CFA00F3B1F800C00CEA030671
:1002E0009E4222D14FEA80034FF00F0C0CFA03F725
:1002F00024EA070405FA03FC4CEA040491F803C05D
:10030000BCF1280F06D14FF0010C0CFA00FCC2F82A
:1003100014C00AE091F803C0BCF1480F05D14FF0BA
:10032000010C0CFA00FCC2F810C000F10100082812
:10033000CED31460B1F800C0BCF1FF0F38DD5468B3
:100340004FF0000031E000F1080C4FF0010808FA0E
:100350000CF3B1F800C00CEA03069E4223D14FEA29
:1003600080034FF00F0C0CFA03F724EA070405FA98
:1003700003FC4CEA040491F803C0BCF1280F05D13A
:1003800000F1080C08FA0CF8C2F8148091F803C0C8
:10039000BCF1480F07D100F1080C4FF0010808FA32
:1003A0000CF8C2F8108000F101000828CBD354608B
:1003B000BDE8F0814FF6FF7101804FF002018170BE
:1003C0004FF00401C170704702464FF0000093687F
:1003D0000B4202D04FF0010001E04FF000007047E7
:1003E0000146886880B2704702464FF00000D3682B
:1003F0000B4202D04FF0010001E04FF000007047C7
:100400000146C86880B2704701617047416170471A
:100410000AB1016100E041617047C16070474FF46B
:10042000803242EA0102826181618261826982696D
:10043000704702464FF00000444B18684FF6807337
:1004400000EA030040EA021040EA01003F4B186056
:1004500070473F49C8617047F0B50A464FF0000346
:100460001C4619460D46394E7168C0F3034583B2E8
:1004700000F44016B6F5401F08D121F07061334EEC
:10048000766826F07066314F7E6017E000F48016C3
:10049000B6F5801F08D14FF0030606FA05F421EAED
:1004A000040141F0706109E04FEA50564FEA061628
:1004B00003FA06F621EA060141F070613AB14FEA0B
:1004C00050564FEA061603FA06F646EA01011F4E99
:1004D0007160F0BD30B54FF000024FEA81734FEA12
:1004E00013744FF00F0303FA04F21A4B4FEAA104FE
:1004F00053F8243023EA0203164C4FEAA10544F8CE
:10050000253023464FEAA10453F824304FEA817482
:100510004FEA147400FA04F443EA04030D4C4FEA62
:10052000A10544F8253030BD0B4908607047000034
:1005300000080140000C014000100140001401407F
:1005400000180140001C0140002001400000014053
:100550000000204208000140DC002042F74800680B
:1005600040F00100F549086008464068F44900EA97
:100570000100F249486008460068F24900EA0100BB
:10058000EE4908600846006820F4802008600846AC
:10059000406820F4FE0048604FF41F0088607047F8
:1005A000E649096821F48031E44A1160114609687E
:1005B00021F480211160B0F5803F03D0B0F5802F89
:1005C0000ED106E0DD49096841F48031DB4A116053
:1005D00007E0DA49096841F4A021D84A116000E037
:1005E00000BF00BF704710B501464FF00002134630
:1005F00010464FEA6112012A02D1D04C236806E06E
:10060000022A02D1CD4C236A01E0CC4C636A01F08E
:100610001F024FF0010404FA02F41C4202D04FF012
:10062000010001E04FF0000010BD70B54FF0000474
:100630002546264600BF3120FFF7D5FF064604F1C8
:100640000104B4F5A06F01D0002EF4D03120FFF7E3
:10065000CAFF10B14FF0010501E04FF00005284638
:1006600070BD01464FF00000B44A106820F0F80059
:1006700040EAC10010607047B34908607047024605
:100680004FF00000AD4B586820F47C1042EA0103A3
:1006900043EA0000A94B58607047AB4908667047B1
:1006A00001464FF00000A54A506820F0030040EAE0
:1006B000010050607047A148406800F00C0070478E
:1006C00001464FF000009D4A506820F0F00040EADB
:1006D00001005060704701464FF00000974A506893
:1006E00020F4E06040EA01005060704701464FF09E
:1006F0000000924A506820F4605040EAC100506007
:10070000704731B18D4A527A42EA00028B4B5A72DD
:1007100008E08A4A527A6FEA0003DBB202EA030277
:10072000864B5A72704789490860704701464FF0FE
:100730000000824A506820F4404040EA01005060C6
:1007400070474FF00001824A11707C4A82F82010F5
:10075000012802D004280AD104E04FF001017C4AAC
:10076000117005E04FF00501794A117000E000BFFB
:1007700000BF70477749086070477049096A41EACD
:1007800000016E4A1162704773490860704730B5C6
:100790004FF000010A460C460B46684D6D6805F0A7
:1007A0000C0121B1042905D0082927D105E06B4DA2
:1007B000056026E0694D056023E0604D6D6805F435
:1007C00070125E4D6D6805F480344FF0020505EB44
:1007D000924224B9624D02FB05F505600DE0574DCC
:1007E0006D6815F4003F04D05D4D02FB05F5056012
:1007F00003E05A4D02FB05F5056002E0574D056028
:1008000000BF00BF4D4D6D6805F0F0014FEA1111BA
:10081000544D6B5C056825FA03F54560474D6D68DE
:1008200005F4E0614FEA11214E4D6B5C456825FAF5
:1008300003F58560414D6D6805F460514FEAD121A3
:10084000484D6B5C456825FA03F5C5603B4D6D6806
:1008500005F440414FEA9131434D6B5CC568B5FBEF
:10086000F3F5056130BD31B1344A526942EA000204
:10087000324B5A6105E0314A526922EA00022F4B9D
:100880005A61704731B12D4A926942EA00022B4BFE
:100890009A6105E0294A926922EA0002274B9A618F
:1008A000704731B1254AD26942EA0002234BDA612E
:1008B00005E0224AD26922EA0002204BDA61704741
:1008C00031B11E4AD26842EA00021C4BDA6005E0F0
:1008D0001A4AD26822EA0002184BDA60704731B136
:1008E000164A126942EA0002144B1A6105E0134AE3
:1008F000126922EA0002114B1A6170471B49086015
:1009000070471149C86470470C49C87170470B485B
:10091000406A40F0807009494862704701464FF0D4
:100920000000064A92680A4202D04FF0010001E03E
:100930004FF0000070470149887270470010024074
:100940000000FFF8FFFFF6FE00004242D8004242DE
:1009500020100240800442423C04424200127A00CD
:1009600000093D0000000020100000204004424229
:1009700001464FF00000F94A106800F0380040EAE4
:10098000010010607047F549096821F00801F34A39
:1009900011601146096841EA000111607047EF4992
:1009A000096821F01001ED4A11601146096841EA19
:1009B000000111607047EA48E8494860E94848602A
:1009C0007047E648006940F08000E44908617047DC
:1009D0004FF00400E149C96801F00101012902D189
:1009E0004FF0010011E0DD49C96811F0040F02D099
:1009F0004FF0020009E0D949C96811F0100F02D088
:100A00004FF0030001E04FF0040070474FF000008A
:100A10004FF0FF0001E0A0F101000028FBD170477A
:100A200070B504464FF00405FFF7D2FF054606E017
:100A3000FFF7ECFFFFF7CCFF0546A4F10104012D01
:100A400001D1002CF4D10CB94FF00505284670BD3A
:100A500070B505464FF0040440F6FF70FFF7E0FF65
:100A60000446042C1AD1BD48006940F00200BB497D
:100A7000086108464561006940F04000086140F6A1
:100A8000FF70FFF7CDFF0446052C07D0B34800697F
:100A900041F6FD7100EA0100B0490861204670BDD1
:100AA00010B54FF0040440F6FF70FFF7B9FF04469D
:100AB000042C19D1A948006940F00400A749086135
:100AC0000846006940F04000086140F6FF70FFF7FB
:100AD000A7FF0446052C07D0A048006941F6FB712A
:100AE00000EA01009D490861204610BD10B54FF095
:100AF000040440F6FF70FFF793FF0446042C40D136
:100B0000974896498860974888600846006940F091
:100B1000200008610846006940F04000086140F686
:100B2000FF70FFF77DFF0446042C20D18B4800693D
:100B300041F6DF7100EA0100884908610846006952
:100B400040F0100008614FF0A500874908804FF081
:100B50000F00FFF765FF0446052C12D07F4800699F
:100B600041F6EF7100EA01007C49086109E0052CBB
:100B700007D07A48006941F6EF7100EA0100774931
:100B80000861204610BD2DE9F04105460E464FF0A4
:100B900004044FF000074FF00F00FFF741FF044639
:100BA000042C2CD16D48006940F001006B490861AC
:100BB0002E804FF00F00FFF733FF0446042C14D1B2
:100BC00005F102074FEA164038804FF00F00FFF79B
:100BD00027FF0446052C12D06048006941F6FE71DB
:100BE00000EA01005D49086109E0052C07D05B4877
:100BF000006941F6FE7100EA01005849086120468B
:100C0000BDE8F08170B505460E464FF004044FF084
:100C10000F00FFF705FF0446042C15D14F4800696B
:100C200040F001004D4908612E804FF00F00FFF7A2
:100C3000F7FE0446052C07D04848006941F6FE71CE
:100C400000EA010045490861204670BD70B50546BF
:100C50000E464FF004044FF00F00FFF7E1FE04468C
:100C6000042C19D13E483D4988603E4888600846BA
:100C7000006940F0100008612E804FF00F00FFF770
:100C8000CFFE0446052C07D03448006941F6EF71C9
:100C900000EA010031490861204670BD2DE9F047A6
:100CA00004464FF6FF763746B046B1464FF004058E
:100CB0006FEA0404E6B2C4F30727C4F307484FEA17
:100CC00014694FF00F00FFF7ABFE0546042D41D12C
:100CD000234822498860234888600846006940F01C
:100CE00010000861FF2E06D0204806804FF00F004C
:100CF000FFF796FE0546042D08D1FF2F06D01C48AD
:100D000007804FF00F00FFF78BFE0546042D0AD138
:100D1000B8F1FF0F07D01748A0F800804FF00F0080
:100D2000FFF77EFE0546042D0AD1B9F1FF0F07D06B
:100D30001148A0F800904FF00F00FFF771FE054634
:100D4000052D07D00548006941F6EF7100EA010062
:100D5000024908612846BDE8F087000000200240F3
:100D600023016745AB89EFCD00F8FF1F08F8FF1F8F
:100D70000AF8FF1F0CF8FF1F0EF8FF1F70B505469D
:100D80004FF0040440F6FF70FFF74AFE0446042CBF
:100D900046D16448644988606448886008460069B0
:100DA00040F0200008610846006940F040000861FA
:100DB00040F6FF70FFF734FE0446042C26D15A4853
:100DC000006941F6DF7100EA0100574908610846F1
:100DD000006940F01000086125B14FF0000054494F
:100DE000088003E04FF0A5005149088040F6FF70ED
:100DF000FFF716FE0446052C12D04B48006941F659
:100E0000EF7100EA01004849086109E0052C07D0AC
:100E10004548006941F6DF7100EA01004249086176
:100E2000204670BD2DE9F04105460E4617464FF0AD
:100E300004043C483C4988603C4888604FF00F00FF
:100E4000FFF7EEFD0446042C1CD13748006940F042
:100E500010003549086147F0F80040EA060040EA12
:100E60000500344908804FF00F00FFF7D9FD044614
:100E7000052C07D02C48006941F6EF7100EA01000B
:100E8000294908612046BDE8F0812748C0698008EB
:100E900070472548006A70474FF000002249C96931
:100EA00011F0020F02D04FF0010001E04FF00000FE
:100EB00070474FF000001C49096811F0200F02D064
:100EC0004FF0010001E04FF00000704731B1164AC9
:100ED000126942EA0002144B1A6105E0124A1269D3
:100EE00022EA0002104B1A61704701464FF00000E1
:100EF00001290AD10C4AD26912F0010F02D04FF039
:100F000001000BE04FF0000008E0074AD2680A42F7
:100F100002D04FF0010001E04FF00000704702499D
:100F2000C86070472301674500200240AB89EFCDC0
:100F300000F8FF1F02F8FF1F70470B4880470B495E
:100F400081F308880A480047FEE7FEE7FEE7FEE770
:100F5000FEE7FEE7FEE7FEE7FEE7FEE70548064997
:100F6000064A074B70470000390F0008A006002012
:100F700031010008A0000020A0060020A0020020EF
:100F8000A00200207047704700BFFEE700BFFEE7E9
:100F900000BFFEE770477047704770477047704763
:100FA0007047704770477047704770477047704789
:100FB0007047704770477047704770477047704779
:100FC0007047704770477047704770477047704769
:100FD0007047704770477047704770477047704759
:100FE0007047704770477047704770477047704749
:100FF0007047704770477047704770477047704739
:101000007047704770477047704770477047704728
:101010007047704701E0A0F101000128FBD870473C
:101020004FF00002114600BF08E04FF0000201E05F
:1010300002F10102FF2AFBD901F101018142F4D33F
:1010400070471CB5934800F0BBFB00F0C1FB5EE0AD
:10105000002000900346C7221821019000F014FBE5
:10106000C82211468C4800F026FB00F098FB8B4804
:10107000FFF7D6FF002000900346C72218210190F9
:1010800000F002FBC8221146834800F014FB42F234
:101090001070FFF7C5FF4FF0000636E04FF0C800B4
:1010A000A0EB4610A0F10404A4F12005C5F307202D
:1010B000E9B2C4F30723E2B2CDE900104FF0120108
:1010C000084600F0E1FA00222021082000F041FA51
:1010D00000F065FB44F62060FFF7A2FFC5F3072090
:1010E000E9B2C4F30723E2B2CDE9001012210846A9
:1010F00000F0CAFA00222021082000F02AFA42F269
:101100001070FFF78DFF06F10106062EC6D39FE78C
:1011100000F002FB624800F053FB00F059FB002294
:10112000C721104600F070FA0022C821084600F0DE
:1011300010FA00F028FB5948FFF772FF0022C72180
:10114000104600F061FA544AC821084600F0A8F998
:1011500000F019FB5148FFF763FF0022C72110463A
:1011600000F052FAFF22C821084600F0F2F900F020
:101170000AFB4A48FFF754FFFFF763FF08B5012158
:101180002020FFF77FFB4FF4E060ADF800004FF048
:1011900002008DF802004FF010008DF80300694640
:1011A0004048FFF775F801214020FFF76BFB4FF433
:1011B0004840ADF800004FF002008DF802004FF0FB
:1011C00010008DF8030069463748FFF761F84FF4C7
:1011D0000050ADF800004FF002008DF802004FF013
:1011E00004008DF8030069462F48FFF751F808BD49
:1011F00010B5FFF7B3F94FF48030FFF7D1F9FFF7DF
:1012000014FA2A49087008460078012805D14FF4DD
:10121000E0110004FFF733FA0DE00120FFF72CFA8C
:1012200000BF2120FFF7DFF90028FAD04FF460114A
:101230000020FFF724FA1020FFF7B1FB0220FFF790
:1012400097FB0020FFF73CFA0020FFF74FFA4FF41E
:101250008060FFF740FA0120FFF71FFA00BF392036
:10126000FFF7C1F90028FAD00220FFF719FA00BFF2
:10127000FFF721FA0828FBD1012144F20500FFF70E
:1012800001FB10BDFFF7B4FFFFF778FFFFF740FF4A
:1012900070470000302C0008A8180008A086010044
:1012A0004F2C0008001401400018014014000020D9
:1012B0000AE04FF0000102E001F10102D1B202297F
:1012C000FADBA0F10102D0B20028F2D1704770B56C
:1012D00004464FF00100FFF7EBFF4FF000052BE055
:1012E0004FF40071C648FFF791F80120FFF7E0FFC7
:1012F00014F0800F05D04FF48061C148FFF784F8E7
:1013000004E04FF48061BE48FFF780F84FEA446084
:101310004FEA10644FF00100FFF7CAFF0120FFF70A
:1013200079FE4FF40071B648FFF76EF80120FFF721
:10133000BFFF05F10100C5B2082DD1DB70BD10B5AE
:1013400004464FF00100FFF7B3FF4FF48071AC4843
:10135000FFF75CF84FF40041AA48FFF757F8204622
:10136000FFF7B5FF4FF48071A548FFF74DF810BDAA
:1013700010B504464FF00100FFF79AFF4FF480715B
:101380009F48FFF743F84FF400419E48FFF73CF8B1
:101390002046FFF79CFF4FF480719948FFF734F81F
:1013A00010BD70B505460C4600BF4FF4005195487E
:1013B000FFF71AF80128F8D04FF480719048FFF732
:1013C00025F84FF400418F48FFF720F82846FFF733
:1013D0007EFF4FF400418B48FFF716F82046FFF7D9
:1013E00076FF4FF480718648FFF70EF870BD70B538
:1013F00006460C46154600BF4FF400518148FEF7E3
:10140000F3FF0128F8D04FF480717D48FEF7FEFF0E
:101410004FF400417B48FEF7F9FF3046FFF757FFD6
:101420004FF400417748FEF7EFFF2046FFF74FFFEC
:101430002846FFF74CFF4FF480717148FEF7E4FF38
:1014400070BD2DE9F04104460E464FF000072546D9
:101450004FF480716A48FEF7D9FF4FF400416948A4
:10146000FEF7D4FF2878FFF732FF05F101054FF4AE
:1014700000416448FEF7C8FF00BF07E02878FFF787
:1014800026FF05F1010507F10100C7B2701EB84241
:10149000F4DC4FF480715A48FEF7B6FFBDE8F081E6
:1014A0002DE9F04104460E4615464FF00007B846B8
:1014B0004FEAE47104EB51714FEAE101B4EBC10171
:1014C0000CD020464FEAE47104EB51714FEAE10180
:1014D000A4EBC101C1F108012144CCB220464FEA7E
:1014E000E47104EB51714FEAE10400BF4FF4005185
:1014F0004448FEF779FF0128F8D04FF48071404846
:10150000FEF784FF4FF400413E48FEF77FFF2420A2
:10151000FFF7DDFE4FF400413A48FEF775FF4FF04C
:1015200000070DE04FF0000806E02878FFF7CFFE37
:1015300005F1010508F10108A045F6DB07F10107F7
:10154000B742EFD34FF480712D48FEF75DFFBDE841
:10155000F0812DE9F04104460D4616464FF0000794
:10156000B8464FEAE47104EB51714FEAE101B4EB84
:10157000C1010CD020464FEAE47104EB51714FEAEF
:10158000E101A4EBC101C1F108012144CCB2204624
:101590004FEAE47104EB51714FEAE10400BF4FF4EC
:1015A00000511848FEF720FF0128F8D04FF4807151
:1015B0001348FEF72BFF4FF400411248FEF726FFB9
:1015C0002420FFF784FE4FF400410E48FEF71CFF75
:1015D0004FF000070BE04FF0000804E03046FFF743
:1015E00076FE08F10108A045F8DB07F10107AF42DC
:1015F000F1D34FF480710248FEF706FFBDE8F08199
:10160000001401400018014070B506460C4615460E
:101610004FF04E0077490870084646704FF04F0073
:10162000754908700846447085704FF00201714892
:10163000FFF707FF03217048FFF703FF70BD2DE997
:10164000F04704460D4616461F46DDE908894FF06F
:1016500044006A4908700846447085704FF04500A0
:101660006749087008464670877080F8038080F8E4
:1016700004904FF003016148FFF7E3FE0521604845
:10168000FFF7DFFEBDE8F0872DE9FC4706460F4671
:1016900014461D46DDE90A892B4622463946304666
:1016A000CDE90089FFF7CBFF2A4621463046FFF7F8
:1016B000ABFFBDE8FC8770B504460D4616462246D2
:1016C00031462846FFF7ECFE70BD1CB504214D489D
:1016D000FFF7B7FE04214C48FFF7B3FE02214B4849
:1016E000FFF7AFFE02214A48FFF7ABFE022149484F
:1016F000FFF7A7FE02214848FFF7A3FE0020009055
:101700000346C72218210190FFF799FF0022C72145
:101710001046FFF779FF1CBD10B54FF400613F483C
:10172000FEF774FE4FF480413C48FEF76FFE42F234
:101730001070FFF775FC4FF480413848FEF764FEE7
:1017400042F21070FFF76CFCFFF7BFFF10BD10B541
:101750008F21F020FFF725FEC0212220FFF721FE78
:101760002020FFF7ECFDFF20FFF7E9FD10BD10B5CD
:10177000F0212220FFF715FE2020FFF7E0FDFF20DB
:10178000FFF7DDFD10BD10B5C7212220FFF709FED0
:101790002020FFF7D4FDFF20FFF7D1FD10BD10B5CD
:1017A00004212220FFF7FDFD2020FFF7C8FDFF20C8
:1017B000FFF7C5FD10BD10B52420FFF7C0FD10BD1B
:1017C00010B504464FF01F012046FFF73AFE10BD4A
:1017D00010B5C0212220FFF7E4FD2020FFF7AFFD68
:1017E00010BD10B5C3212220FFF7DBFD2020FFF73D
:1017F000A6FD10BD390000203B0000203100002074
:1018000034000020150000201900002025000020D1
:10181000290000202B0000202F000020001801408C
:10182000704770477047754600F028F8AE460500CF
:101830006946534620F00700854618B020B5FFF7EB
:101840008DFBBDE820404FF000064FF000074FF041
:1018500000084FF0000B21F00701AC46ACE8C009CE
:10186000ACE8C009ACE8C009ACE8C0098D467047D7
:101870000446AFF300802046FEF7A3FC0048704703
:101880004000002000487047440000200149182013
:10189000ABBEFEE726000200704710B5FFF7F2FF6F
:1018A0004FF00001016010BDFFFFFFFFFFFFFFFFD2
:1018B000FFFFFFFFFFFFFE1FFFFFFFFFFFFFFFFF19
:1018C000FFFFFFFFFFFFFFFFFFFFFFFFFFFFFFFE29
:1018D00000FFFFFFFFFFFFFFFFFFFFFFFFFFFFFF17
:1018E000FFFF800000000003FE00FFFFFFFFFFFF7F
:1018F000FFFFFFFFFFFFFFFFFFFFFF800000000073
:1019000001FFC0FFFFFFFFFFFFFFFFFFFFFFFFFF24
:10191000FFFFFFFF800000000001FFC3FFFFFFFF8C
:10192000FFFFFFFFFFFFFFFFFFFFFFFFFFFFFFFFC7
:10193000FFFFFFFF0FFFFFFFFFFFFFFFFFFFFFFFA7
:10194000FFFFFFFFFFFFFFFFFFFFFFFFFE00FFFFA7
:10195000FFFFFFFFFFFFFFFFFFFFFFFFFFFFFFFF97
:10196000FFFFFFFFFFFE00FFFFFFFFFFFFFFFFFF87
:10197000FFFFFFFFFFFFFFFFFFFFFFFFFFFFFF80F6
:10198000FFFFFFFFFFFFFFFFFFFFFFFFFFFFFFFF67
:10199000FFFFFFFFFFFFFFFFC1FFFFFFFFFFFFFF95
:1019A000FFFFFFFFFFFFFFFFFFFFFFFFFFFFFFFF47
:1019B000FE07FFFFFFFFFFFFFFFFFFFFFFFFFFFF30
:1019C000FFFFFFFFFFFFFFFFFFFE3FFFFFFFFFFFE8
:1019D000FFFFFFFFFFFFFFFFFFFFFFFFFFFFFFFF17
:1019E000FFFFFEFFFFFFFFFFFFFFFFFFFFFFFFFF08
:1019F000FFFFFFFFFFFFFFFFFFFFFFFFFFFFFFFFF7
:101A0000FFFFFFFFFFFFFFFFFFFFFFFFFFFFFFFFE6
:101A1000FFFFFFFFFE07FFFFFFFFFFFFFFFFFFFFCF
:101A2000FFFFFFFFFFFFFFFF80FFC0000FFE00FF73
:101A3000FFFFFFFFFFFFFFFFFFFFFFFFFFFFFFFFB6
:101A4000FE003F80000FFE00FFFFFFFFFFFFFFFFD4
:101A5000FFFFFFFFFFFFFFFFFFF8001F80000FFFEA
:101A6000E1FFFFFFFFFFFFFFFFFFFFFFFFFFFFFFA4
:101A7000FFFFF0000F80000FFF87FFFFFFFFFFFF5A
:101A8000FFFFFFFFFFFFFFFFFFFFFFF0180F83FFC8
:101A90000FFE0FFFFFFFFFFFFFFFFFFFFFFFFFFF37
:101AA000FFFFFFFFE07F078FFF0FFE00FFFFFFFF3D
:101AB000FFFFFFFFFFFFFFFFFFFFFFFFFFE1FF87CC
:101AC0008FFF0FFE00FFFFFFFFFFFFFFFFFFFFFF86
:101AD000FFFFFFFFFFFFE1FFC78FFF0FFFE0FFFFEB
:101AE000FFFFFFFFFFFFFFFFFFFFFFFFFFFFFFC342
:101AF000FFC78FFF0FFF83FFFFFFFFFFFFFFFFFF0A
:101B0000FFFFFFFFFFFFFFFFC3FFC78FFF0FFE0FAA
:101B1000FFFFFFFFFFFFFFFFFFFFFFFFFFFFFFFFD5
:101B2000FFC7FFC787FF1FFE3FFFFFFFFFFFFFFF4E
:101B3000FFFFFFFFFFFFFFFFFFFFC7C7C787FE1FB6
:101B4000FFFFFFFFFFFFFFFFFFFFFFFFFFFFFFFFA5
:101B5000FFFFFFC7C7C783FC1FFE7FFFFFFFFFFF1D
:101B6000FFFFFFFFFFFFFFFFFFFFFFFFC7C7C7C06C
:101B7000001FFE01FFFFFFFFFFFFFFFFFFFFFFFF53
:101B8000FFFFFFFFFFC3C007C0003FFE00FFFFFFD6
:101B9000FFFFFFFFFFFFFFFFFFFFFFFFFFFFC3C0D0
:101BA00007E0007FFE00FFFFFFFFFFFFFFFFFFFFDB
:101BB000FFFFFFFFFFFFFFE3C007F001FFFFE3FFB1
:101BC000FFFFFFFFFFFFFFFFFFFFFFFFFFFFFFFF25
:101BD000E3C007FC07FFFF87FFFFFFFFFFFFFFFFDB
:101BE000FFFFFFFFFFFFFFFFFFFFFFFFFFFFFFFE06
:101BF0000DFFFFFFFFFFFFFFFFFFFFFFFFFFFFFFE7
:101C0000FFFFFFFFFFFFFFFFFE00FFFFFFFFFFFFE4
:101C1000FFFFFFFFFFFFFFFFFFFFFFFFFFFFFFFFD4
:101C2000FFFE00FFFFFFFFFFFFFFFFFFFFFFFFFFC4
:101C3000FFFFFFFFFFE7FFFE000FFFE0FFFFFFFFDB
:101C4000FFFFFFFFFFFFFFFFFFFFFFFFFFFF007F23
:101C500080000FFF03FFFFFFFFFFFFFFFFFFFFFFFE
:101C6000FFFFFFFFFFFFFC003F80000FFE0FFFFFA5
:101C7000FFFFFFFFFFFFFFFFFFFFFFFFFFFFFFF87B
:101C8000001F80000FFE7FFFFFFFFFFFFFFFFFFF32
:101C9000FFFFFFFFFFFFFFFFF0000F80001FFFFCB3
:101CA000FFFFFFFFFFFFFFFFFFFFFFFFFFFFFFFF44
:101CB000FFE07E0FFFFFFFFFF8FFFFFFFFFFFFFFCB
:101CC000FFFFFFFFFFFFFFFFFFFFE1FF07FFFFFF3A
:101CD000FFF8FFFFFFFFFFFFFFFFFFFFFFFFFFFF1B
:101CE000FFFFFFE3FF87FFFFFFFFF8FFFFFFFFFF9F
:101CF000FFFFFFFFFFFFFFFFFFFFFFFFC3FFC7FF68
:101D0000FF1FFFFFFFFFFFFFFFFFFFFFFFFFFFFFC3
:101D1000FFFFFFFFFFC3FFC7E0FF0FFFFF3FFFFF16
:101D2000FFFFFFFFFFFFFFFFFFFFFFFFFFFFC7FFFB
:101D3000C7C07F0FFFF81FFFFFFFFFFFFFFFFFFF81
:101D4000FFFFFFFFFFFFFFC7FFC7803F8FFF101F91
:101D5000FFFFFFFFFFFFFFFFFFFFFFFFFFFFFFFF93
:101D6000C3FFC7801F8FFE009FFFFFFFFFFFFFFF26
:101D7000FFFFFFFFFFFFFFFFFFC3FFC7860F8FFEC1
:101D80000CDFFFFFFFFFFFFFFFFFFFFFFFFFFFFF76
:101D9000FFFFC3FF878F070FFE649FFFFFFFFFFF5B
:101DA000FFFFFFFFFFFFFFFFFFFFFFE1FF078F8246
:101DB0000FFE689FFFFFFFFFFFFFFFFFFFFFFFFF1B
:101DC000FFFFFFFFE07E0F8FC00FFE0C1FFFFFFF26
:101DD000FFFFFFFFFFFFFFFFFFFFFFFFFFF0000F11
:101DE0008FE01FF80C1FFFFFFFFFFFFFFFFFFFFF4C
:101DF000FFFFFFFFFFFFF0001F8FE01FF10C3FFF11
:101E0000FFFFFFFFFFFFFFFFFFFFFFFFFFFFFFF8E9
:101E1000003FC7F87FF1BFFFFFFFFFFFFFFFFFFF9E
:101E2000FFFFFFFFFFFFFFFFFE00FFFFFFFFFFFFC2
:101E3000FFFFFFFFFFFFFFFFFFFFFFFFFFFFFFFFB2
:101E4000FFFFE7FFFFFFFFFFC3FFFFFFFFFFFFFFF6
:101E5000FFFFFFFFFFFFFFFFFFFFFFFFFFFFFFFF92
:101E6000FF01FFFFFFFFFFFFFFFFFFFFFFFFFFFF80
:101E7000FFFFFFFFFFFFFFFFDFFF00FFFFFFFFFF91
:101E8000FFFFFFFFFFFFFFFFFFFFFFFFFF80FF8060
:101E9000000FFE08FFFFFFFFFFFFFFFFFFFFFFFF39
:101EA000FFFFFFFFFFFE003F80000FFE7CFFFFFFF4
:101EB000FFFFFFFFFFFFFFFFFFFFFFFFFFFFF80038
:101EC0001F80000FFE78FFFFFFFFFFFFFFFFFFFFF8
:101ED000FFFFFFFFFFFFFFF0001F80001FFE00FF5E
:101EE000FFFFFFFFFFFFFFFFFFFFFFFFFFFFFFFF02
:101EF000F0000F8F9FFFFE01FFFFFFFFFFFFFFFFBF
:101F0000FFFFFFFFFFFFFFFFFFE0FF078F8FFFFFD8
:101F100003FFFFFFFFFFFFFFFFFFFFFFFFFFFFFFCD
:101F2000FFFFE1FF878F8FFFFFEFFFFFFFFFFFFF47
:101F3000FFFFFFFFFFFFFFFFFFFFFFE3FF878F8F25
:101F4000FFFFFFFFFFFFFFFFFFFFFFFFFFFFFFFFA1
:101F5000FFFFFFFFC3FFC78F0FFFFFC3FFFFFFFFA1
:101F6000FFFFFFFFFFFFFFFFFFFFFFFFFFC7FFC7F1
:101F7000800FFFFF01FFFFFFFFFFFFFFFFFFFFFFDE
:101F8000FFFFFFFFFFFFC7FFC7801FFFFF00FFFF2F
:101F9000FFFFFFFFFFFFFFFFFFFFFFFFFFFFFFC789
:101FA000FFC7C01FFFFE08FFFFFFFFFFFFFFFFFF90
:101FB000FFFFFFFFFFFFFFFFC3FFC7C03FFFFE7C28
:101FC000FFFFFFFFFFFFFFFFFFFFFFFFFFFFFFFF21
:101FD000FFC3FF87F0FFFFFE78FFFFFFFFFFFFFF5C
:101FE000FFFFFFFFFFFFFFFFFFFFE1FF87FFFFFF97
:101FF000FE00FFFFFFFFFFFFFFFFFFFFFFFFFFFFF1
:10200000FFFFFFE0FF0FFFFFFFFE01FFFFFFFFFFEE
:10201000FFFFFFFFFFFFFFFFFFFFFFFFE0380FFFA6
:10202000F00FFF03FFFFFFFFFFFFFFFFFFFFFFFFBB
:10203000FFFFFFFFFFF0001F80000FFFFFFFFFFF0C
:10204000FFFFFFFFFFFFFFFFFFFFFFFFFFFFF800A6
:102050003F80000FFFFFFFFFFFFFFFFFFFFFFFFFBE
:10206000FFFFFFFFFFFFFFFC007F80000FFFE3FF8C
:10207000FFFFFFFFFFFFFFFFFFFFFFFFFFFFFFFF70
:10208000FF01FF80000FFF80FFFFFFFFFFFFFFFF4B
:10209000FFFFFFFFFFFFFFFFFFFFFFFFFFFF0FFE41
:1020A00000FFFFFFFFFFFFFFFFFFFFFFFFFFFFFF3F
:1020B000FFFFFFFFFFFFFF0FFE00FFFFFFFFFFFF20
:1020C000FFFFFFFFFFFFFFFFFFFFFFFFFFFFFFFF20
:1020D0000FFE7CFFFFFFFFFFFFFFFFFFFFFFFFFF84
:1020E000FFFFFFFFFFF007FFFF0FFE78FFFFFFFF7F
:1020F000FFFFFFFFFFFFFFFFFFFFFFFFFFC0000726
:10210000FFFF0FFE00FFFFFFFFFFFFFFFFFFFFFFCF
:10211000FFFFFFFFFFFFC00007FFFF0FF000FFFF03
:10212000FFFFFFFFFFFFFFFFFFFFFFFFFFFFFFC0FE
:102130000007FFFF8FF000FFFFFFFFFFFFFFFFFF24
:10214000FFFFFFFFFFFFFFFFC00007FFFF0FF01FB4
:10215000FFFFFFFFFFFFFFFFFFFFFFFFFFFFFFFF8F
:10216000FFC3FFC7FFFFFFF7FFFFFFFFFFFFFFFFFB
:10217000FFFFFFFFFFFFFFFFFFFFC3FFC7FFFF8F53
:10218000FFE7FFFFFFFFFFFFFFFFFFFFFFFFFFFF77
:10219000FFFFFFC3FFC7FFFE0FFFC7FFFFFFFFFFEC
:1021A000FFFFFFFFFFFFFFFFFFFFFFFFC3FFC7FFB3
:1021B000F80FFFC7FFFFFFFFFFFFFFFFFFFFFFFF5E
:1021C000FFFFFFFFFFE3FFC7FFE00FFFC7FFFFFFBA
:1021D000FFFFFFFFFFFFFFFFFFFFFFFFFFFFC3FF4B
:1021E00087FF803FFFC7FFFFFFFFFFFFFFFFFFFFEE
:1021F000FFFFFFFFFFFFFFC3FF87FE00FFFFFFFFA3
:10220000FFFFFFFFFFFFFFFFFFFFFFFFFFFFFFFFDE
:10221000E1FF07F803FFFF81FFFFFFFFFFFFFFFF65
:10222000FFFFFFFFFFFFFFFFFFE0FC0FE007FFFFE7
:1022300000FFFFFFFFFFFFFFFFFFFFFFFFFFFFFFAD
:10224000FFFFE0001F8007FFFE00FFFFFFFFFFFF13
:10225000FFFFFFFFFFFFFFFFFFFFFFF0001F80C733
:10226000FFFE3CFFFFFFFFFFFFFFFFFFFFFFFFFF42
:10227000FFFFFFFFF8007F83C7FFFE7CFFFFFFFF2C
:10228000FFFFFFFFFFFFFFFFFFFFFFFFFFFE00FF5E
:1022900083C7FFFE70FFFFFFFFFFFFFFFFFFFFFF92
:1022A000FFFFFFFFFFFFFFCFFF8047FFF800FFFFAB
:1022B000FFFFFFFFFFFFFFFFFFFFFFFFFFFFFFFF2E
:1022C000FFFF8007FFF000FFFFFFFFFFFFFFFFFFA3
:1022D000FFFFFFFFFFFFFFFFFFFFFFE000FFF00337
:1022E000FFFFFFFFFFFFFFFFFFFFFFFFFFFFFFFFFE
:1022F000FFFFFFFFFC003FF07FFFFFFFFFFFFFFF3F
:10230000FFFFFFFFFFFFFFFFFFFFFFFFFFFF000FCC
:10231000FFFFFFFFFFFFFFFFFFFFFFFFFFFFFFFFCD
:10232000FFFFFFFFFFFFFFE00FFFE0FFFFFFFFFFEB
:10233000FFFFFFFFFFFFFFFFFFFFFFFFFFFFFFFFAD
:10234000FC0FFA00FFFFFFFFFFFFFFFFFFFFFFFF94
:10235000FFFFFFFFFFFFFFFFFFFF8FF200FFFFFF09
:10236000FFFFFFFFFFFFFFFFFFFFFFFFFFFFFFFF7D
:10237000FFFFFFFFF203FFFFFFFFFFFFFFFFFFFF76
:10238000FFFFFFFFFFFFFFFFFFFFBFFFFFE2FFFFBA
:10239000FFFFFFFFFFFFFFFFFFFFFFFFFFFFFFFF4D
:1023A000FFFFFF8FFFFFFFFFFFFFFFFFFFFFFFFFAD
:1023B000FFFFFFFFFFFFFFFFFFFFFFFF83FFFFFFA9
:1023C00019FFFFFFFFFFFFFFFFFFFFFFFFFFFFFF03
:1023D000FFFFFFFFFF80FFFFFE08FFFFFFFFFFFF84
:1023E000FFFFFFFFFFFFFFFFFFFFFFFFFFFF807FFC
:1023F000FFFE04FFFFFFFFFFFFFFFFFFFFFFFFFFE9
:10240000FFFFFFFFFFFFFFC01FFFFE44FFFFFFFFB7
:10241000FFFFFFFFFFFFFFFFFFFFFFFFFFFFFFFFCC
:10242000F0000FFE44FFFFFFFFFFFFFFFFFFFFFF76
:10243000FFFFFFFFFFFFFFFFFFFC000FFE40FFFF5E
:10244000FFFFFFFFFFFFFFFFFFFFFFFFFFFFFFFF9C
:10245000FFFFFF000FFE40FFFFFFFFFFFFFFFFFF3B
:10246000FFFFFFFFFFFFFFFFFFFFFFFE000FFF610A
:10247000FFFFFFFFFFFFFFFFFFFFFFFFFFFFFFFF6C
:10248000FFFFFFFFF80FFFFFFFFFFFFFFFFFFFFF53
:10249000FFFFFFFFFFFFFFFFFFFFFFFFFFE01FFF4B
:1024A000FFFFFFFFFFFFFFFFFFFFFFFFFFFFFFFF3C
:1024B000FFFFFFFFFFFFC07FFFFFF01FFFFFFFFFDA
:1024C000FFFFFFFFFFFFFFFFFFFFFFFFFFFFFF809B
:1024D000FFFFFE001FFFFFFFFFFFFFFFFFFFFFFFEC
:1024E000FFFFFFFFFFFFFFFF83FFFFFE001FFFFF58
:1024F000FFFFFFFFFFFFFFFFFFFFFFFFFFFFFFFFEC
:10250000FF87FFFFFE01FFFFFFFFFFFFFFFFFFFF52
:10251000FFFFFFFFFFFFFFFFFFFF9FFFFFFE3CFFEF
:10252000FFFFFFFFFFFFFFFFFFFFFFFFFFFFFFFFBB
:10253000FFFFFFFFFFFFFE7CFFFFFFFFFFFFFFFF2F
:10254000FFFFFFFFFFFFFFFFFFFFFFFFFFFFFFFE9C
:1025500000FFFFFFFFFFFFFFFFFFFFFFFFFFFFFF8A
:10256000FFFFFFFFFFFFFFFFFE00FFFFFFFFFFFF7B
:10257000FFFFFFFFFFFFFFFFFFFFFFFFFFFFFFFF6B
:10258000FFFE03FFFFFFFFFFFFFFFFFFFFFFFFFF58
:10259000FFFFFFFFFFFFFFFFFFFFFF8FFFFFFFFFBB
:1025A000FFFFFFFFFFFFFFFFFFFFFFFFFFFFFFFF3B
:1025B000FFFFFFFFFFFFFFFFFFFFFFFFFFFFFFFF2B
:1025C000FFFFFFFFFFFFFFFFFFFFFFFFFFFCFFFF1E
:1025D000FFFFFFFFFFFFFFFFFFFFFFFFFFFFFF808A
:1025E0000000000003FE00FFFFFFFFFFFFFFFFFFF3
:1025F000FFFFFFFFFFFFFFFF800000000001F00072
:10260000FFFFFFFFFFFFFFFFFFFFFFFFFFFFFFFFDA
:10261000FF800000000001F000FFFFFFFFFFFFFF51
:10262000FFFFFFFFFFFFFFFFFFFF80000000000133
:10263000F03FFFFFFFFFFFFFFFFFFFFFFFFFFFFF79
:10264000FFFFFF800000000001FFFBFFFFFFFFFF17
:10265000FFFFFFFFFFFFFFFFFFFFFFFF8000000006
:102660000001FFE0FFFFFFFFFFFFFFFFFFFFFFFF96
:10267000FFFFFFFFFF800000000001FF60FFFFFF82
:10268000FFFFFFFFFFFFFFFFFFFFFFFFFFFF8000D8
:1026900000000001FE60FFFFFFFFFFFFFFFFFFFFE5
:1026A000FFFFFFFFFFFFFF8000FFFFFE01FE0CFFAB
:1026B000FFFFFFFFFFFFFFFFFFFFFFFFFFFFFFFF2A
:1026C0008000FFFFFE01FE4DFFFFFFFFFFFFFFFF4A
:1026D000FFFFFFFFFFFFFFFFFF8000FFFFFE01FE88
:1026E00040FFFFFFFFFFFFFFFFFFFFFFFFFFFFFFB9
:1026F000FFFF8000FFFFFE01FE00FFFFFFFFFFFF67
:10270000FFFFFFFFFFFFFFFFFFFFFF8000FFFFFE58
:1027100001FE00FFFFFFFFFFFFFFFFFFFFFFFFFFC7
:10272000FFFFFFFF800000003E01FF00FFFFFFFFF3
:10273000FFFFFFFFFFFFFFFFFFFFFFFFFF80000026
:10274000003E01FFFFFFFFFFFFFFFFFFFFFFFFFF57
:10275000FFFFFFFFFFFF800000003E01FFFFFFFFC4
:10276000FFFFFFFFFFFFFFFFFFFFFFFFFFFFFF80F8
:102770000000003E01FEFF9FFFFFFFFFFFFFFFFF86
:10278000FFFFFFFFFFFFFFFF800000003E01FE0F85
:102790009FFFFFFFFFFFFFFFFFFFFFFFFFFFFFFFA9
:1027A000FF807FFFF83E01FE001FFFFFFFFFFFFFDE
:1027B000FFFFFFFFFFFFFFFFFFFF807FFFF83E01EE
:1027C000FE001FFFFFFFFFFFFFFFFFFFFFFFFFFFF9
:1027D000FFFFFF807FFFF83E01FFC03FFFFFFFFFCD
:1027E000FFFFFFFFFFFFFFFFFFFFFFFF807FFFF8FF
:1027F0003E01FFC0FFFFFFFFFFFFFFFFFFFFFFFFE7
:10280000FFFFFFFFFF807FFFF83E01FF07FFFFFF95
:10281000FFFFFFFFFFFFFFFFFFFFFFFFFFFF807CCA
:1028200000F83E01FE1FFFFFFFFFFFFFFFFFFFFF5E
:10283000FFFFFFFFFFFFFF807800F83E01FE7FFFF4
:10284000FFFFFFFFFFFFFFFFFFFFFFFFFFFFFFFF98
:10285000807800F83E01FFFCFFFFFFFFFFFFFFFF56
:10286000FFFFFFFFFFFFFFFFFF807800F83E01FF43
:10287000F8FFFFFFFFFFFFFFFFFFFFFFFFFFFFFF6F
:10288000FFFF807800F83E01FFF8FFFFFFFFFFFF2A
:10289000FFFFFFFFFFFFFFFFFFFFFF807800F83E15
:1028A00001FFF8FFFFFFFFFFFFFFFFFFFFFFFFFF3D
:1028B000FFFFFFFF807800F83E01FFFFFFFFFFFFF3
:1028C000FFFFFFFFFFFFFFFFFFFFFFFFFF8078001D
:1028D000F80001FFFFFFFFFFFFFFFFFFFFFFFFFF0C
:1028E000FFFFFFFFFFFF807800F80001FFC3FFFF3D
:1028F000FFFFFFFFFFFFFFFFFFFFFFFFFFFFFF8067
:102900007800F80001FF81FFFFFFFFFFFFFFFFFFDF
:10291000FFFFFFFFFFFFFFFF807800F80001FF00CF
:10292000FFFFFFFFFFFFFFFFFFFFFFFFFFFFFFFFB7
:10293000FF8000F8003C01FE00FFFFFFFFFFFFFFEC
:10294000FFFFFFFFFFFFFFFFFFFF8000F8003E01DA
:10295000FE7CFFFFFFFFFFFFFFFFFFFFFFFFFFFF0B
:10296000FFFFFF8000F8003E01FE78FFFFFFFFFF42
:10297000FFFFFFFFFFFFFFFFFFFFFFFF8000F800EB
:102980003E01FE18FFFFFFFFFFFFFFFFFFFFFFFFFE
:10299000FFFFFFFFFF8000F8003E01FF39FFFFFF50
:1029A000FFFFFFFFFFFFFFFFFFFFFFFFFFFF8000B5
:1029B000F8003E01FF9FFFFFFFFFFFFFFFFFFFFF4C
:1029C000FFFFFFFFFFFFFF8000F8003E01FFFFFF5A
:1029D000FFFFFFFFFFFFFFFFFFFFFFFFFFFFFFFF07
:1029E0008000F8003E01FFC3FFFFFFFFFFFFFFFF76
:1029F000FFFFFFFFFFFFFFFFFF8000F8003E01FF2A
:102A000081FFFFFFFFFFFFFFFFFFFFFFFFFFFFFF54
:102A1000FFFF8000F8003E01FF00FFFFFFFFFFFF08
:102A2000FFFFFFFFFFFFFFFFFFFFFF8000F8003EFB
:102A300001FE00FFFFFFFFFFFFFFFFFFFFFFFFFFA4
:102A4000FFFFFFFF8000FFFFFE01FE7CFFFFFFFF97
:102A5000FFFFFFFFFFFFFFFFFFFFFFFFFF8000FF04
:102A6000FFFE01FE7CFFFFFFFFFFFFFFFFFFFFFFF9
:102A7000FFFFFFFFFFFF8000FFFFFE01FE00FFFFE3
:102A8000FFFFFFFFFFFFFFFFFFFFFFFFFFFFFF80D5
:102A900000FFFFFE01FE01FFFFFFFFFFFFFFFFFF43
:102AA000FFFFFFFFFFFFFFFF8000FFFFFE01FF01B1
:102AB000FFFFFFFFFFFFFFFFFFFFFFFFFFFFFFFF26
:102AC000FF800000000001FF87FFFFFFFFFFFFFF07
:102AD000FFFFFFFFFFFFFFFFFFFF8000000000017F
:102AE000FFFFFFFFFFFFFFFFFFFFFFFFFFFFFFFFF6
:102AF000FFFFFF800000000001FFFCFFFFFFFFFF62
:102B0000FFFFFFFFFFFFFFFFFFFFFFFF8000000051
:102B10000001FE00FFFFFFFFFFFFFFFFFFFFFFFFC2
:102B2000FFFFFFFFFF800000000001FE00FFFFFF2E
:102B3000FFFFFFFFFFFFFFFFFFFFFFFFFFFF800023
:102B400000000001FE01FFFFFFFFFFFFFFFFFFFF8F
:102B5000FFFFFFFFFFFFFF800000000001FE3FFFBF
:102B6000FFFFFFFFFFFFFFFFFFFFFFFFFFFFFFFF75
:102B7000800000000001FE7CFFFFFFFFFFFFFFFF62
:102B8000FFFFFFFFFFFFFFFFFFFFFFFFFFFFFFFE56
:102B900000FFFFFFFFFFFFFFFFFFFFFFFFFFFFFF44
:102BA000FFFFFFFFFFFFFFFFFE00FFFFFFFFFFFF35
:102BB000FFFFFFFFFFFFFFFFFFFFFFFFFFFFFFFF25
:102BC000FFFE03FFFFFFFFFFFFFFFFFFFFFFFFFF12
:102BD000FFFFFFFFFFFFFFFFFFFFFF3FFFFFFFFFC5
:102BE000FFFFFFFFFFFFFFFFFFFFFFFFFFFFFFFFF5
:102BF000FFFFFFFE7EFFFFFFFFFFFFFFFFFFFFFF67
:102C0000FFFFFFFFFFFFFFFFFFFFFFFFFE00FFFFD4
:102C1000FFFFFFFFFFFFFFFFFFFFFFFFFFFFFFFFC4
:102C2000FFFFFFFFFFFE00FFFFFFFFFFFFFFFFFFB4
:102C300032101818081818080000000000000000E2
:102C400000000000001314441200000000000032D5
:102C50000202011112122222666969595899998853
:102C600000000000F8B41351355151190100000063
:102C7000902C000800000020400000006C010008BB
:102C8000D02C0008400000206006000088010008E9
:102C90000000000001020304010203040607080902
:102CA000020406080001C700000CD7D69D218F2220
:102CB000F00300040A2CA8F01F3A1A3B083C331119
:102CC0000100000000000000000000000000000003
:0400000508000131BD
:00000001FF
