:020000040800F2
:1000000000040020E70D0008F50D0008F70D0008BA
:10001000F90D0008FB0D0008FD0D000800000000B0
:10002000000000000000000000000000FF0D0008BC
:10003000010E000800000000030E0008050E000875
:10004000490E00084B0E00084D0E00084F0E000828
:10005000510E0008530E0008550E0008570E0008F8
:10006000590E00085B0E00085D0E00085F0E0008C8
:10007000610E0008630E0008650E0008670E000898
:10008000690E00086B0E00086D0E0008070E0008D0
:10009000070E0008070E0008070E0008770E00087C
:1000A000790E00087B0E00087D0E00087F0E000808
:1000B000810E0008830E0008850E0008870E0008D8
:1000C000890E00088B0E00088D0E00088F0E0008A8
:1000D000910E0008930E0008950E0008970E000878
:1000E000990E00089B0E00089D0E00089F0E000848
:1000F000A10E0008A30E0008A50E0008A70E000818
:10010000A90E0008AB0E0008AD0E0008AF0E0008E7
:10011000B10E0008B30E0008B50E0008B70E0008B7
:10012000B90E0008BB0E0008BD0E0008BF0E000887
:1001300000F002F800F03CF80AA090E8000C8244BD
:100140008344AAF10107DA4501D100F031F8AFF29A
:10015000090EBAE80F0013F0010F18BFFB1A43F0A5
:1001600001031847C04D0000E04D0000103A24BFC5
:1001700078C878C1FAD8520724BF30C830C144BF0C
:1001800004680C607047000000230024002500264E
:10019000103A28BF78C1FBD8520728BF30C148BFEA
:1001A0000B6070471FB501F02EF91FBD10B510BDD3
:1001B00001F0EDF81146FFF7F5FF00F0B1FF01F097
:1001C0000BF903B4FFF7F2FF03BC01F015F90000CF
:1001D00010B50446C248844208D10121042000F031
:1001E00014FB0021042000F010FB46E0BD488442CF
:1001F00008D10121082000F008FB0021082000F0B0
:1002000004FB3AE0B848844208D10121102000F0F4
:10021000FCFA0021102000F0F8FA2EE0B3488442E6
:1002200008D10121202000F0F0FA0021202000F068
:10023000ECFA22E0AE48844208D10121402000F0CF
:10024000E4FA0021402000F0E0FA16E0A9488442D8
:1002500008D10121802000F0D8FA0021802000F090
:10026000D4FA0AE0A448844207D10121801500F0A5
:10027000CCFA0021A01500F0C8FA10BD10B501217C
:10028000084600F0C2FA0021012000F0BEFA10BDBD
:100290002DE9F0410246002500260020002300241D
:1002A000002791F803C00CF00F0591F803C01CF073
:1002B000100F03D091F802C04CEA0505B1F800C058
:1002C0001CF0FF0F31D0146800202BE04FF0010C20
:1002D0000CFA00F3B1F800C00CEA03069E4220D1EC
:1002E00083004FF00F0C0CFA03F7BC4305FA03FC34
:1002F0004CEA040491F803C0BCF1280F06D14FF07A
:10030000010C0CFA00FCC2F814C00AE091F803C01A
:10031000BCF1480F05D14FF0010C0CFA00FCC2F8FB
:1003200010C0401C0828D1D31460B1F800C0BCF143
:10033000FF0F34DD546800202EE000F1080C4FF070
:10034000010808FA0CF3B1F800C00CEA03069E425B
:1003500021D183004FF00F0C0CFA03F7BC4305FAD0
:1003600003FC4CEA040491F803C0BCF1280F05D14A
:1003700000F1080C08FA0CF8C2F8148091F803C0D8
:10038000BCF1480F07D100F1080C4FF0010808FA42
:100390000CF8C2F81080401C0828CED35460BDE889
:1003A000F0814FF6FF710180022181700421C1703C
:1003B00070470246002093680B4201D0012000E004
:1003C000002070470146886880B2704702460020CE
:1003D000D3680B4201D0012000E0002070470146A5
:1003E000C86880B2704701617047416170470AB1C7
:1003F000016100E041617047C16070474FF4803295
:100400000A43826181618261826982697047024622
:1004100000203A4B18684FF68073184040EA0210EB
:100420000843364B186070473549C8617047F0B5CE
:100430000A460023002400210025304E7168C0F3D5
:10044000034583B200F44016B6F5401F08D121F0F1
:1004500070612A4E766826F07066284F7E6012E042
:1004600000F48016B6F5801F06D1032606FA05F4BF
:10047000A14341F0706106E0460D360103FA06F62D
:10048000B14341F0706122B1460D360103FA06F620
:1004900031431A4E7160F0BD30B500228B071C0F3E
:1004A0000F2303FA04F2154B08338C1053F8243051
:1004B0009343124C08348D1044F8253023468C1099
:1004C00053F824308C07240F00FA04F423430B4C18
:1004D00008348D1044F8253030BD0A490860704753
:1004E00000080140000C01400010014000140140D0
:1004F00000180140001C01400020014000000140A4
:1005000000002042DC002042DB48006840F001008F
:10051000D949086008464068D8490840D64948602B
:1005200008460068D6490840D34908600846006874
:1005300020F4802008600846406820F4FE004860EF
:100540004FF41F0088607047CB49096821F480315F
:10055000C94A11601146096821F480211160B0F583
:10056000803F03D0B0F5802F0ED106E0C249096864
:1005700041F48031C04A116007E0BF49096841F485
:10058000A021BD4A116000E000BF00BF704710B558
:1005900001460022002300204A11012A02D1B64C54
:1005A000236806E0022A02D1B34C236A01E0B24C70
:1005B000636A01F01F02012494401C4201D0012013
:1005C00000E0002010BD70B500240025002600BF0B
:1005D0003120FFF7DCFF0646641CB4F5A06F01D0A4
:1005E000002EF5D03120FFF7D2FF08B1012500E041
:1005F0000025284670BD014600209F4A106820F063
:10060000F80040EAC100106070479E4908607047DA
:1006100002460020984B586820F47C1042EA0103FF
:100620001843954B586070479649086670470146D5
:100630000020914A506820F0030008435060704742
:100640008D48406800F00C007047014600208A4A3F
:10065000506820F0F00008435060704701460020C9
:10066000854A506820F4E0600843506070470146B6
:100670000020814A506820F4605040EAC100506078
:10068000704729B17C4A527A02437B4B5A7206E08A
:10069000794A527AC343DBB21A40774B5A72704799
:1006A00079490860704701460020734A506820F479
:1006B00040400843506070470021744A11706E4AF0
:1006C00082F82010012802D0042808D103E001217B
:1006D0006E4A117004E005216C4A117000E000BF01
:1006E00000BF70476A49086070476349096A01435F
:1006F000614A1162704767490860704730B5002150
:100700000022002400235C4D6D6805F00C0121B12E
:10071000042905D0082923D105E05F4D056022E0BA
:100720005D4D05601FE0544D6D6805F47012524D2B
:100730006D6805F48034022505EB92421CB9574DD3
:10074000554305600BE04C4D6D6815F4003F03D038
:10075000524D5543056002E04F4D5543056002E0A0
:100760004D4D056000BF00BF434D6D6805F0F001C1
:1007700009094B4D6B5C0568DD4045603E4D6D6879
:1007800005F4E061090A464D6B5C4568DD40856013
:10079000394D6D6805F46051C90A414D6B5C45687F
:1007A000DD40C560344D6D6805F44041890B3D4D19
:1007B0006B5CC568B5FBF3F5056130BD29B12E4A08
:1007C000526902432C4B5A6104E02B4A526982431E
:1007D000294B5A61704729B1274A92690243264B37
:1007E0009A6104E0244A92698243234B9A617047DC
:1007F00029B1214AD26902431F4BDA6104E01E4A43
:10080000D26982431C4BDA61704729B11A4AD26817
:100810000243194BDA6004E0174AD2688243164B50
:10082000DA60704729B1144A12690243124B1A6107
:1008300004E0114A126982430F4B1A6170471A494A
:10084000086070470F49C86470470B49C87170470A
:100850000948406A40F08070074948627047014685
:100860000020054A92680A4201D0012000E00020E1
:100870007047014988727047001002400000FFF87D
:10088000FFFFF6FE00004242D80042422010024024
:10089000800442423C04424200127A0000093D00BA
:1008A00000000020100000204004424201460020C9
:1008B000FA4A106800F03800084310607047F749A2
:1008C000096821F00801F54A1160114609680143E1
:1008D00011607047F149096821F01001EF4A116079
:1008E00011460968014311607047ED48EB494860C3
:1008F000EC4848607047E948006940F08000E749EB
:10090000086170470420E549C96801F00101012927
:1009100001D101200EE0E149C96811F0040F01D0B6
:10092000022007E0DD49C96811F0100F01D0032053
:1009300000E0042070470020FF2000E0401E002857
:10094000FCD1704770B504460425FFF7DBFF054670
:1009500005E0FFF7F0FFFFF7D5FF0546641E012D08
:1009600001D1002CF5D104B90525284670BD70B51C
:100970000546042440F6FF70FFF7E4FF0446042C0C
:1009800019D1C648006940F00200C4490861084610
:100990004561006940F04000086140F6FF70FFF7D4
:1009A000D1FF0446052C06D0BC48006941F6FD7114
:1009B0000840BA490861204670BD10B5042440F6CD
:1009C000FF70FFF7BFFF0446042C18D1B34800693D
:1009D00040F00400B14908610846006940F0400059
:1009E000086140F6FF70FFF7ADFF0446052C06D006
:1009F000AA48006941F6FB710840A84908612046F1
:100A000010BD10B5042440F6FF70FFF79BFF0446AD
:100A1000042C3CD1A248A1498860A24888600846BD
:100A2000006940F0200008610846006940F040007D
:100A3000086140F6FF70FFF785FF0446042C1DD1C6
:100A40009648006941F6DF710840944908610846FC
:100A5000006940F010000861A520934908804FF01C
:100A60000F00FFF76FFF0446052C10D08B4800697C
:100A700041F6EF7108408949086108E0052C06D06D
:100A80008648006941F6EF710840844908612046B4
:100A900010BD2DE9F04105460E46042400270F2025
:100AA000FFF750FF0446042C26D17C48006940F033
:100AB00001007A4908612E800F20FFF743FF0446AA
:100AC000042C10D1AF1C300C38800F20FFF73AFFF8
:100AD0000446052C10D07148006941F6FE710840AB
:100AE0006E49086108E0052C06D06C48006941F6A3
:100AF000FE710840694908612046BDE8F08170B583
:100B000005460E4604240F20FFF71CFF0446042C64
:100B100013D16248006940F00100604908612E80ED
:100B20000F20FFF70FFF0446052C06D05B48006935
:100B300041F6FE71084059490861204670BD70B504
:100B400005460E4604240F20FFF7FCFE0446042C45
:100B500017D1534851498860524888600846006957
:100B600040F0100008612E800F20FFF7EBFE0446D6
:100B7000052C06D04948006941F6EF710840474905
:100B80000861204670BD2DE9F04704464FF6FF7618
:100B90003746B046B1460425E443E6B2C4F307271E
:100BA000C4F307484FEA14690F20FFF7CBFE054650
:100BB000042D3ED13A48394988603A488860084651
:100BC000006940F010000861FF2E06D0374806800B
:100BD0004FF00F00FFF7B6FE0546042D08D1FF2F9A
:100BE00006D0334807804FF00F00FFF7ABFE0546F5
:100BF000042D09D1B8F1FF0F06D02E48A0F80C88BB
:100C00000F20FFF79FFE0546042D09D1B9F1FF0F14
:100C100006D02848A0F80E980F20FFF793FE05464F
:100C2000052D06D01D48006941F6EF7108401B49AB
:100C300008612846BDE8F08770B50546042440F6F3
:100C4000FF70FFF77FFE0446042C50D1144813496F
:100C50008860144888600846006940F020000861F8
:100C60000846006940F04000086140F6FF70FFF759
:100C700069FE0446042C31D10848006941F6DF7151
:100C80000840064908610846006940F01000086104
:100C900095B100200449088011E0000000200240C6
:100CA00023016745AB89EFCD00F8FF1F08F8FF1F50
:100CB0000AF8FF1F00F0FF1FA5204549088040F6F5
:100CC000FF70FFF73FFE0446052C10D04148006935
:100CD00041F6EF7108403F49086108E0052C06D055
:100CE0003C48006941F6DF7108403A4908612046F6
:100CF00070BD2DE9F04105460E46174604243648DE
:100D000034498860354888600F20FFF71BFE044691
:100D1000042C19D12F48006940F010002D490861BA
:100D200047F0F800304328432D4908804FF00F006A
:100D3000FFF708FE0446052C06D02648006941F658
:100D4000EF710840234908612046BDE8F081214841
:100D5000C069800870471F48006A704700201D491D
:100D6000C96911F0020F01D0012000E00020704796
:100D700000201849096811F0200F01D0012000E07F
:100D80000020704729B1134A12690243114B1A61BE
:100D900004E0104A126982430E4B1A617047014603
:100DA0000020012908D10B4AD26912F0010F01D0AD
:100DB000012008E0002006E0064AD2680A4201D07D
:100DC000012000E0002070470249C8607047000021
:100DD00000F8FF1F0020024023016745AB89EFCDDB
:100DE00002F8FF1F70470B4880470B4981F30888C2
:100DF0000A480047FEE7FEE7FEE7FEE7FEE7FEE7FC
:100E0000FEE7FEE7FEE7FEE705480649064A074B10
:100E100070470000E50D0008780600203101000849
:100E20007800002078060020780200207802002058
:100E30007047704700BFFEE700BFFEE700BFFEE758
:100E400070477047704770477047704770477047EA
:100E500070477047704770477047704770477047DA
:100E600070477047704770477047704770477047CA
:100E700070477047704770477047704770477047BA
:100E800070477047704770477047704770477047AA
:100E9000704770477047704770477047704770479A
:100EA000704770477047704770477047704770478A
:100EB000704770477047704770477047704770477A
:100EC00000E0401E0128FCD870470022002100BF2E
:100ED00005E0002200E0521CFF2AFCD9491C814297
:100EE000F7D3704710B506E04FF40051D048FFF734
:100EF0006DFA00B900E0F7E700BF4FF4FA60FFF7C2
:100F0000E4FF10BD10B5002404E0CA49085D00F0FC
:100F100001FA641C41F288308442F6D30220FFF7C4
:100F2000D4FF10BD10B5002404E0C349085D00F0F3
:100F3000F1F9641C42F210708442F6D30220FFF7EC
:100F4000C4FF10BD10B5102000F0CCF9FFF7EAFF88
:100F5000132000F0C7F9FFF7D5FF10BD10B525200D
:100F600000F0C0F9002404E0B449085D00F0D2F9B3
:100F7000641C0F2CF8D3262000F0B4F9002404E000
:100F8000AF49085D00F0C6F9641C0F2CF8D3272088
:100F900000F0A8F9002404E0AA49085D00F0BAF9BD
:100FA000641C0F2CF8D310BD10B5202000F09AF966
:100FB000002404E0A449085D00F0ACF9641C0F2C87
:100FC000F8D3212000F08EF9002404E09F49085D49
:100FD00000F0A0F9641C0F2CF8D3222000F082F955
:100FE000002404E09A49085D00F094F9641C0F2C79
:100FF000F8D3232000F076F9002404E09549085D39
:1010000000F088F9641C0F2CF8D3242000F06AF952
:10101000002404E09049085D00F07CF9641C0F2C6A
:10102000F8D310BD08B501212020FFF7D4FB4FF401
:10103000E060ADF8000002208DF8020010208DF86D
:10104000030069468548FFF723F901214020FFF797
:10105000C2FB4FF44840ADF8000002208DF80200BA
:1010600010208DF8030069467148FFF711F94FF41D
:101070000050ADF8000002208DF8020004208DF829
:10108000030069466A48FFF703F908BD10B5FFF78A
:101090003BFA4FF48030FFF757FAFFF794FA7049A4
:1010A000087008460078012805D14FF4E0110004CB
:1010B000FFF7AEFA0DE00120FFF7A7FA00BF2120ED
:1010C000FFF765FA0028FAD04FF460110020FFF70F
:1010D0009FFA1020FFF7FEFB0220FFF7E7FB00203E
:1010E000FFF7B3FA0020FFF7C2FA4FF48060FFF772
:1010F000B5FA0120FFF798FA00BF3920FFF747FA49
:101100000028FAD00220FFF792FA00BFFFF798FA02
:101110000828FBD1012144F20500FFF75CFB10BD5C
:10112000FFF7B4FFFFF77EFF00F012F97EE000F05A
:101130000FF9012000F0D6F8072000F0EBF80020AE
:1011400000F0E8F8082000F0E5F8002000F0E2F8F0
:10115000062000F0C7F8072000F0DCF8072000F0B8
:10116000D9F8072000F0D6F8042000F0BBF8FFF70C
:10117000B9FE3C48FFF7A9FE002000F0B3F8CF20ED
:1011800000F0C8F8502000F0ADF8372000F0C2F8A9
:10119000302000F0A7F8392000F0BCF8612000F002
:1011A000A1F8C82000F0B6F8002000F0B3F8C8207D
:1011B00000F0B0F8822000F095F80E2000F0AAF8B8
:1011C000FFF7F2FEFFF7CAFEFFF7BCFE122000F0A9
:1011D00089F8FFF787FE2348FFF777FE502000F0DD
:1011E00081F8172000F096F8822000F07BF80020AC
:1011F00000F090F8012000F075F8022000F08AF865
:10120000002000F087F8002000F084F8002000F0B3
:1012100081F840F2DC50FFF758FE022000F062F83F
:1012200049F64040FFF751FE00BFFEE77FE77047F9
:1012300000180140243B000814140008F74E000871
:10124000064F0008154F0008AC4E0008BB4E0008C2
:10125000CA4E0008D94E0008E84E000800140140AC
:1012600014000020E093040007E0002101E04A1C84
:10127000D1B20229FBDB421ED0B20028F5D1704763
:1012800070B504460120FFF7EFFF002527E04FF47B
:1012900000712D48FFF7A9F80120FFF7E5FF14F0D2
:1012A000800F05D04FF480612748FFF79CF804E0D9
:1012B0004FF480612448FFF798F86006040E01207F
:1012C000FFF7D2FF0120FFF7FBFD4FF400711E482E
:1012D000FFF789F80120FFF7C7FF681CC5B2082D8A
:1012E000D5DB70BD10B504460120FFF7BDFF4FF4FC
:1012F00080711548FFF779F84FF400411348FFF764
:1013000074F82046FFF7BCFF4FF480710E48FFF7DA
:101310006AF810BD10B504460120FFF7A5FF4FF491
:1013200080710948FFF761F84FF400410748FFF763
:101330005AF82046FFF7A4FF4FF480710248FFF7E8
:1013400052F810BD70470000001401400018014021
:1013500010B54FF400610B48FFF747F84FF4804198
:101360000848FFF742F842F21070FFF7AEFD4FF465
:1013700080410448FFF737F842F21070FFF7A5FDEF
:1013800010BD000000180140704770477047754657
:1013900000F028F8AE4605006946534620F00700E5
:1013A000854618B020B5FFF72FFDBDE820404FF06F
:1013B00000064FF000074FF000084FF0000B21F03F
:1013C0000701AC46ACE8C009ACE8C009ACE8C0090C
:1013D000ACE8C0098D4670470446AFF30080204654
:1013E000FEF7EFFE004870471800002001487047E4
:1013F000704700BF1C00002001491820ABBEFEE76B
:1014000026000200704710B5FFF7F0FF4FF0000113
:10141000016010BDFFFFFFFFFFFFFFFFFFFFFFFFAA
:10142000FFFFFFFFFFFFFFFFFFFFFFFFFFFFFFFFCC
:10143000FFFFFFFFFFFFFFFFFFFFFFFFFFFFFFFFBC
:10144000FFFFFFFFFFFFFFFFFFFFFFFFFFFFFFFFAC
:10145000FFFFFFFFFFFFFFFFFFFFFFFFFFFFFFFF9C
:10146000FFFFFFFFFFFFFFFFFFFFFFFFFFFFFFFF8C
:10147000FFFFFFFFFFFFFFFFFFFFFFFFFFFFFFFF7C
:10148000FFFFFFFFFFFFFFFFFFFFFFFFFFFFFFFF6C
:10149000FFFFFFFFFFFFFFFFFFFFFFFFFFFFFFFF5C
:1014A000FFFFFFFFFFFFFFFFFFFFFFFFFFFFFFFF4C
:1014B000FFFFFFFFFFFFFFFFFFFFFFFFFFFFFFFF3C
:1014C000FFFFFFFFFFFFFFFFFFFFFFFFFFFFFFFF2C
:1014D000FFFFFFFFFFFFFFFFFFFFFFFFFFFFFFFF1C
:1014E000FFFFFFFFFFFFFFFFFFFFFFFFFFFFFFFF0C
:1014F000FFFFFFFFFFFFFFFFFFFFFFFFFFFFFFFFFC
:10150000FFFFFFFFFFFFFFFFFFFFFFFFFFFFFFFFEB
:10151000FFFFFFFFFFFFFFFFFFFFFFFFFFFFFFFFDB
:10152000FFFFFFFFFFFFFFFFFFFFFFFFFFFFFFFFCB
:10153000FFFFFFFFFFFFFFFFFFFFFFFFFFFFFFFFBB
:10154000FFFFFFFFFFFFFFFFFFFFFFFFFFFFFFFFAB
:10155000FFFFFFFFFFFFFFFFFFFFFFFFFFFFFFFF9B
:10156000FFFFFFFFFFFFFFFFFFFFFFFFFFFFFFFF8B
:10157000FFFFFFFFFFFFFFFFFFFFFFFFFFFFFFFF7B
:10158000FFFFFFFFFFFFFFFFFFFFFFFFFFFFFFFF6B
:10159000FFFFFFFFFFFFFFFFFFFFFFFFFFFFFFFF5B
:1015A000FFFFFFFFFFFFFFFFFFFFFFFFFFFFFFFF4B
:1015B000FFFFFFFFFFFFFFFFFFFFFFFFFFFFFFFF3B
:1015C000FFFFFFFFFFFFFFFFFFFFFFFFFFFFFFFF2B
:1015D000FFFFFFFFFFFFFFFFFFFFFFFFFFFFFFFF1B
:1015E000FFFFFFFFFFFFFFFFFFFFFFFFFFFFFFFF0B
:1015F000FFFFFFFFFFFFFFFFFFFFFFFFFFFFFFFFFB
:10160000FFFFFFFFFFFFFFFFFFFFFFC003FFFFFF25
:10161000F00000FFFFFFFFFFFFFFFFFFFFFFFFFFE7
:10162000FFFFFFFFFFFFFFFFFFFFFFFFFFFFFFFFCA
:10163000FFFFFFFFFFFFFFFFFFFFFFFFFC00003F7B
:10164000FFFFF000003FFFFFFFFFFFFFFFFFFFFF77
:10165000FFFFFFFFFFFFFFFFFFFFFFFFFFFFFFFF9A
:10166000FFFFFFFFFFFFFFFFFFFFFFFFFFFFF00098
:10167000003FFFFFF000000FFFFFFFFFFFFFFFFF36
:10168000FFFFFFFFFFFFFFFFFFFFFFFFFFFFFFFF6A
:10169000FFFFFFFFFFFFFFFFFFFFFFFFFFFFFFFF5A
:1016A000C00FF03FFFFFF00FF00FFFFFFFFFFFFF46
:1016B000FFFFFFFFFFFFFFFFFFFFFFFFFFFFFFFF3A
:1016C000FFFFFFFFFFFFFFFFFFFFFFFFFFFFFFFF2A
:1016D000FFFFC03FFF3FFFFFF00FF00FFFC00FFF06
:1016E00000C0F00C0003FC00FFFFFFFFFFFFFFFF47
:1016F000FFFFFFFFFFFFFFFFFFFFFFFFFFFFFFFFFA
:10170000FFFFFFFF00FFFFFFFFFFF00FF03FFC00B8
:1017100000FF0000F0000C03FC03FFFFFFFFFFFFD2
:10172000FFFFFFFFFFFFFFFFFFFFFFFFFFFFFFFFC9
:10173000FFFFFFFFFFFF00FFFFFFFFFFF000003F85
:10174000F00000FF0000F0000C03FC03FFFFFFFFB0
:10175000FFFFFFFFFFFFFFFFFFFFFFFFFFFFFFFF99
:10176000FFFFFFFFFFFFFFFF00FFFFFFFFFFF00096
:10177000003FC00FC03F00FFF00FFC00F00FFFFF65
:10178000FFFFFFFFFFFFFFFFFFFFFFFFFFFFFFFF69
:10179000FFFFFFFFFFFFFFFFFFFF00FFFFFC000356
:1017A000F000000FC03FC03F00FFF00FFF00F00F40
:1017B000FFFFFFFFFFFFFFFFFFFFFFFFFFFFFFFF39
:1017C000FFFFFFFFFFFFFFFFFFFFFFFF00FFFFFC2B
:1017D0000003F00FF003C000003F00FFF00FFF0018
:1017E000F00FFFFFFFFFFFFFFFFFFFFFFFFFFFFF08
:1017F000FFFFFFFFFFFFFFFFFFFFFFFFFFFF00FFF8
:10180000FFFC0003F00FFC03C000003F00FFF00FDF
:10181000FFC0003FFFFFFFFFFFFFFFFFFFFFFFFFD6
:10182000FFFFFFFFFFFFFFFFFFFFFFFFFFFFFFFFC8
:10183000C03FFF3FFFFFF00FFC03C03FFFFF00FF73
:10184000F00FFFC0003FFFFFFFFFFFFFFFFFFFFFA5
:10185000FFFFFFFFFFFFFFFFFFFFFFFFFFFFFFFF98
:10186000FFFFC00FF03FFFFFF00FF003C00FFC3F82
:1018700000FFF00FFFC000FFFFFFFFFFFFFFFFFFB4
:10188000FFFFFFFFFFFFFFFFFFFFFFFFFFFFFFFF68
:10189000FFFFFFFFF000003FFFFFF000000FF00030
:1018A000003F00FFF00FFFF000FFFFFFFFFFFFFF13
:1018B000FFFFFFFFFFFFFFFFFFFFFFFFFFFFFFFF38
:1018C000FFFFFFFFFFFFFC00003FFFFFF000000FE6
:1018D000FC00003F00FFF00FFFF003FFFFFFFFFFE2
:1018E000FFFFFFFFFFFFFFFFFFFFFFFFFFFFFFFF08
:1018F000FFFFFFFFFFFFFFFFFFC003FFFFFFF00041
:1019000000FFFFC000FF00FFF00FFFFC03FFFFFF21
:10191000FFFFFFFFFFFFFFFFFFFFFFFFFFFFFFFFD7
:10192000FFFFFFFFFFFFFFFFFFFFFFFFFFFFFFFFC7
:10193000FFFFFFFFFFFFFFFFFFFFFFFFFFF003FFC2
:10194000FFFFFFFFFFFFFFFFFFFFFFFFFFFFFFFFA7
:10195000FFFFFFFFFFFFFFFFFFFFFFFFFFFFFFFF97
:10196000FFFFFFFFFFFFFFFFFFFFFFFFFFFFFFF096
:101970000FFFFFFFFFFFFFFFFFFFFFFFFFFFFFFF67
:10198000FFFFFFFFFFFFFFFFFFFFFFFFFFFFFFFF67
:10199000FFFFFFFFFFFFFFFFFFFFFFFFFFFFFFFF57
:1019A000FFC00FFFFFFFFFFFFFFFFFFFFFFFFFFF76
:1019B000FFFFFFFFFFFFFFFFFFFFFFFFFFFFFFFF37
:1019C000FFFFFFFFFFFFFFFFFFFFFFFFFFFFFFFF27
:1019D000FFFFFFC03FFFFFFFFFFFFFFFFFFFFFFF16
:1019E000FFFFFFFFFFFFFFFFFFFFFFFFFFFFFFFF07
:1019F000FFFFFFFFFFFFFFFFFFFFFFFFFFFFFFFFF7
:101A0000FFFFFFFFFFFFFFFFFFFFFFFFFFFFFFFFE6
:101A1000FFFFFFFFFFFFFFFFFFFFFFFFFFFFFFFFD6
:101A2000FFFFFFFFFFFFFFFFFFFFFFFFFFFFFFFFC6
:101A3000FFFFFFFFFFFFFFFFFFFFFFFFFFFFFFFFB6
:101A4000FFFFFFFFFFFFFFFFFFFFFFFFFFFFFFFFA6
:101A5000FFFFFFFFFFFFFFFFFFFFFFFFFFFFFFFF96
:101A6000FFFFFFFFFFFFFFFFFFFFFFFFFFFFFFFF86
:101A7000FFFFFFFFFFFFFFFFFFFFFFFFFFFFFFFF76
:101A8000FFFFFFFFFFFFFFFFFFFFFFFFFFFFFFFF66
:101A9000FFFFFFFFFFFFFFFFFFFFFFFFFFFFFFFF56
:101AA000FFFFFFFFFFFFFFFFFFFFFFFFFFFFFFFF46
:101AB000FFFFFFFFFFFFFFFFFFFFFFFFFFFFFFFF36
:101AC000FFFFFFFFFFFFFFFFFFFFFFFFFFFFFFFF26
:101AD000FFFFFFFFFFFFFFFFFFFFFFFFFFFFFFFF16
:101AE000FFFFFFFFFFFFFFFFFFFFFFFFFFFFFFFF06
:101AF000FFFFFFFFFFFFFFFFFFFFFFFFFFFFFFFFF6
:101B0000FFFFFFFFFFFFFFFFFFFFFFFFFFFFFFFFE5
:101B1000FFFFFFFFFFFFFFFFFFFFFFFFFFFFFFFFD5
:101B2000FC3FFFFF0FFFFFFFFFFFFFFFFFFC3FFF3B
:101B3000FFFFC3FFFFFFFFF0FFFFFFFFFFFFFFFF00
:101B4000FFFFFFFFFFFFFFFFFFFFFFFFFFFFFFFFA5
:101B50000FFC3C3FFFFF0FFFFFFF0003FFFFFFFCF9
:101B60003FFC003FC3FFFFFFFFF0FFFFFFFFFFFF52
:101B7000FFFFFFFFFFFFFFFFFFFFFFFFFFFFFFFF75
:101B8000FFFF0FFC3FFFFFFF0FFFFFFF0FFFFFFFF8
:101B9000FFFC3FFC3F0FFFFFFFFFFFF0FFFFFFFFDA
:101BA000FFFFFFFFFFFFFFFFFFFFFFFFFFFFFFFF45
:101BB000FFFFFFFF0FFC3C3F000F0C0FFFFF0FFF6D
:101BC000C303FC003FFC3FC3C3F003C303F0FC00AE
:101BD000FC3F0FFFFFFFFFFFFFFFFFFFFFFFFFFFC8
:101BE000FFFFFFFFFFFF0FFC3C3C3F0F03C3FFFF66
:101BF0000FFFC0F0F0FC3FFC3FC3C3C3FFC0F0F0D9
:101C0000FFFC3C3F0FFFFFFFFFFFFFFFFFFFFFFF5A
:101C1000FFFFFFFFFFFFFFFF00003C3C3F0F0FC334
:101C2000C00F0003C3F0F0FC3FFC3FC3C3C0FFC3C1
:101C3000F0F0FC003C3F0FFFFFFFFFFFFFFFFFFF47
:101C4000FFFFFFFFFFFFFFFFFFFF0FFC3C3C3F0FCD
:101C50000FC3FFFF0FFFC3F0F0FC3FFC3FC3C3F017
:101C60000FC3F0F0F0FC3F0C3FFFFFFFFFFFFFFF53
:101C7000FFFFFFFFFFFFFFFFFFFFFFFF0FFC3C3CED
:101C80003F0F0FC3FFFF0FFFC3F0F0FC3FFC3FC34C
:101C9000C3FF03C3F0F0F0FC3F0C3FFFFFFFFFFF6B
:101CA000FFFFFFFFFFFFFFFFFFFFFFFFFFFF0FFC37
:101CB0003C3C3C0F0FC3FFFF0FFFC3F0F0F03FFCB5
:101CC0003F0FC3FFC3C3F0F0F0FC3FC0FFFFFFFFB7
:101CD000FFFFFFFFFFFFFFFFFFFFFFFFFFFFFFFF14
:101CE0000FFC3C3F030F0FC3FFFF0003C3F0FC0CCE
:101CF0003FFC003FC3C00FC003F0FC003FC0FFFF2C
:101D0000FFFFFFFFFFFFFFFFFFFFFFFFFFFFFFFFE3
:101D1000FFFFFFFFFFFFFF0FFFFFFFFFFFFFFFFFC3
:101D2000FFFFFFFFFFFFFFFFFFC3FFFFFFFFFFF00E
:101D3000FFFFFFFFFFFFFFFFFFFFFFFFFFFFFFFFB3
:101D4000FFFFFFFFFFFFFFFFFF0FFFFFFFFFFFFF93
:101D5000FFFFFFFFFFFFFFFFFFFFFFC3FFFFFFFFCF
:101D6000FFC3FFFFFFFFFFFFFFFFFFFFFFFFFFFFBF
:101D7000FFFFFFFFFFFFFFFFFFFF003FFFFFFFFF32
:101D8000FFFFFFFFFFFFFFFFFFFFFFFFFFC3FFFF9F
:101D9000FFFFFFC3FFFFFFFFFFFFFFFFFFFFFFFF8F
:101DA000FFFFFFFFFFFFFFFFFFFFFFFFFFFFFFFF43
:101DB000FFFFFFFFFFFFFFFFFFFFFFFFFFFFFFFF33
:101DC000FFFFFFFFFFFFFFFFFFFFFFFFFFFFFFFF23
:101DD000FFFFFFFFFFFFFFFFFFFFFFFFFFFFFFFF13
:101DE000FFFFFFFFFFFFFFFFFFFFFFFFFFFFFFFF03
:101DF000FFFFFFFFFFFFFFFFFFFFFFFFFFFFFFFFF3
:101E0000FFFFFFFFFFFFFFFFFFFFFFFFFFFFFFFFE2
:101E1000FFFFFFFFFFFFFFFFFFFFFFFFFFFFFFFFD2
:101E2000FFFFFFFFFFFFFFFFFFFFFFFFFFFFFFFFC2
:101E3000FFFFFFFFFFFFFFFFFFFFFFFFFFFFC0F3FD
:101E4000F3FFFFFFFFFFFFFFFFFFFFFFFC3FFFFF71
:101E5000FFFFFFFFFFFFFFFFFFFC3FFFFFFFFFFF55
:101E6000FFFFFFFFFFFFFFFFFFFFFFFFFFFFFFFF82
:101E70000FF3F3FFFFFF000FFFFFFFFFFFFFFC3F2C
:101E8000FFFFFFFFFFFFFFFFFFF000FC3FFFFFFF33
:101E9000FFFFFFFFFFFFFFFFFFFFFFFFFFFFFFFF52
:101EA000FFFF0FFFFFFFFFFF0FC3FFFFFFFFFFFF5E
:101EB000FC3FFFFFFFFFFFFFFFFFFFF0FC3FFFFFC7
:101EC000FFFFFFFFFFFFFFFFFFFFFFFFFFFFFFFF22
:101ED000FFFFFFFC00C3F0F0C3FF0FC3F003FC00E3
:101EE000F0C0FC303FC00FC30C30C3F0FFF0FC3C2F
:101EF0003FFFFFFFFFFFFFFFFFFFFFFFFFFFFFFFB2
:101F0000FFFFFFFFFFFF0FC3F0F003FF0FC3FFF062
:101F1000F0FFF03C3C0F0F0FC3C00C00C3F0FFF00C
:101F2000FC3C3FFFFFFFFFFFFFFFFFFFFFFFFFFF47
:101F3000FFFFFFFFFFFFFFFF0FC3F0F0FFFF000FEA
:101F4000F000F03FF0FC3C3F0F0FC3C3FC3FC3F079
:101F5000FFF0FC3C3FFFFFFFFFFFFFFFFFFFFFFF26
:101F6000FFFFFFFFFFFFFFFFFFFF0FC3F0F0FFFFCB
:101F70000C3FC3F0FC03F0FC3C3F0F0003C3FC3FED
:101F8000F0C3FFF000FC3FFFFFFFFFFFFFFFFFFF7D
:101F9000FFFFFFFFFFFFFFFFFFFFFFFF0FC3F0F09B
:101FA000FFFF0F0FC3F0FFC0F0FC3C3F0F0FFFC35C
:101FB000FC3FF0C3FFF0FFFC3FFFFFFFFFFFFFFF11
:101FC000FFFFFFFFFFFFFFFFFFFFFFFFFFFF0FC34D
:101FD000C0F0FFFF0FC3C3F0FFF0F0FC3C3F0F0F5A
:101FE000C3C3FC3FFC0FFFF0FFFC3FFFFFFFFFFF01
:101FF000FFFFFFFFFFFFFFFFFFFFFFFFFFFFFFFFF1
:102000000FF030F0FFFF0FF0F000F003F000FC00E5
:102010003FC00FC3FC3FFC0FFFF0FFFC3FFFFFFF83
:10202000FFFFFFFFFFFFFFFFFFFFFFFFFFFFFFFFC0
:10203000FFFFFFFFFFFFFFFFFFFFFFFFFFFFF0FFBF
:10204000FFFFFFFFFFFFFFFFFF0FFFFFFFFFFFFF90
:10205000FFFFFFFFFFFFFFFFFFFFFFFFFFFFFFFF90
:10206000FFFFFFFFFFFFFFFFFFFFFFFFFFFFFFFF80
:10207000F0FFFFFFFFFFFFFFFFFFFC3FFFFFFFFF42
:10208000FFFFFFFFFFFFFFFFFFFFFFFFFFFFFFFF60
:10209000FFFFFFFFFFFFFFFFFFFFFFFFFFFFFFFF50
:1020A000FFFFF0FFFFFFFFFFFFFFFFFFFC3FFFFF12
:1020B000FFFFFFFFFFFFFFFFFFFFFFFFFFFFFFFF30
:1020C000FFFFFFFFFFFFFFFFFFFFFFFFFFFFFFFF20
:1020D000FFFFFFFFFFFFFFFFFFFFFFFFFFFFFFFF10
:1020E000FFFFFFFFFFFFFFFFFFFFFFFFFFFFFFFF00
:10244000FFFFFFFFFFFFFFFFFFFFFFFFFFFFF55F46
:10245000F55FFFFFFFFFFFFFFFD57FFFFFFFFFFFE0
:10246000FFFFFFFFFFFFFFFFFFFFFFFFFFFFFFFF7C
:10247000FFFFFFFFFFFFFFFFFFFFFFFFFFFFFFFF6C
:10248000F55FF55FFFFFFFFFFFFFFFD57FFFFFFF5A
:10249000FFFFFFFFFFFFFFFFFFFFFFFFFFFFFFFF4C
:1024A000FFFFFFFFFFFFFFFFFFFFFFFFFFFFFFFF3C
:1024B000FFFFF55FF55FFFFFFFFFFFFFFFD57FFF2A
:1024C000FFFFFFFFFFFFFFFFFFFFFFFFFFFFFFFF1C
:1024D000FFFFFFFFFFFFFFFFFFFFFFFFFFFFFFFF0C
:1024E000FFFFFFFFF55FF55FFF555FFD57D57F5598
:1024F00055FF555FFFFFF55D57FF55F55FF55D7FB4
:10250000FFFFFFFFFFFFFFFFFFFFFFFFFFFFFFFFDB
:10251000FFFFFFFFFFFFF55FF55FFD5557FD57D547
:102520007F5555FD5557FFFFF55555FF55F55FF59F
:10253000557D57FFFFFFFFFFFFFFFFFFFFFFFFFF7F
:10254000FFFFFFFFFFFFFFFFF555555FF57F55FDCF
:1025500057D57FD57FF57F55FFFFF55F55FF55F5C3
:102560005FF55FFD57FFFFFFFFFFFFFFFFFFFFFF6F
:10257000FFFFFFFFFFFFFFFFFFFFF555555FD57F13
:1025800055FD57D57FD57FD57F55FFFFF55F55FFAB
:1025900055F55FF55FFD57FFFFFFFFFFFFFFFFFFF3
:1025A000FFFFFFFFFFFFFFFFFFFFFFFFF555555F39
:1025B000D55555FD57D57FD57FD55555FFFFF55FCF
:1025C00055FF55F55FF55FFD57FFFFFFFFFFFFFF6D
:1025D000FFFFFFFFFFFFFFFFFFFFFFFFFFFFF55FB5
:1025E000F55FD55555FD57D57FD57FD55555FFFF9F
:1025F000F55F55FF55F55FF55FFFFFFFFFFFFFFF3D
:10260000FFFFFFFFFFFFFFFFFFFFFFFFFFFFFFFFDA
:10261000F55FF55FD57FFFFD57D57FD57FD57FFF70
:10262000FFFFF55F55FF55F55FF55FFFFFFFFFFF0C
:10263000FFFFFFFFFFFFFFFFFFFFFFFFFFFFFFFFAA
:10264000FFFFF55FF55FD57FFDFD57D57FD57FD5C2
:102650007FFDFFFFF55F55FF55F55FF55FFD57FF08
:10266000FFFFFFFFFFFFFFFFFFFFFFFFFFFFFFFF7A
:10267000FFFFFFFFF55FF55FF55FF5FD57D57FD5F0
:102680007FF55FF5FFFFF55F55FF55F55FF55FFDE2
:1026900057FFFFFFFFFFFFFFFFFFFFFFFFFFFFFFF2
:1026A000FFFFFFFFFFFFF55FF55FFD5555FD55553A
:1026B0007FD555FD5555FFFFF55F55FF55555FF526
:1026C0005FFD57FFFFFFFFFFFFFFFFFFFFFFFFFF64
:1026D000FFFFFFFFFFFFFFFFF55FF55FFF5557FFB0
:1026E00055D57FFD55FF5557FFFFF55F55FFD57554
:1026F0005FF55FFD57FFFFFFFFFFFFFFFFFFFFFFDE
:10270000FFFFFFFFFFFFFFFFFFFFFFFFFFFFFFFFD9
:10271000FFFFFFFFFFFFFFFFFFFFFFFFFFFFFFFFC9
:10272000FFFFFFFFFFFFFFFFFFFFFFFFFFFFFFFFB9
:10273000FFFFFFFFFFFFFFFFFFFFFFFFFFFFFFFFA9
:10274000FFFFFFFFFFFFFFFFFFFFFFFFFFFFFFFF99
:10275000FFFFFFFFFFFFFFFFFFFFFFFFFFFFFFFF89
:10276000FFFFFFFFFFFFFFFFFFFFFFFFFFFFFFFF79
:10277000FFFFFFFFFFFFFFFFFFFFFFFFFFFFFFFF69
:10278000FFFFFFFFFFFFFFFFFFFFFFFFFFFFFFFF59
:10279000FFFFFFFFFFFFFFFFFFFFFFFFFFFFFFFF49
:1027A000FFFFFFFFFFFFFFFFFFFFFFFFFFFFFFFF39
:1027B000FFFFFFFFFFFFFFFFFFFFFFFFFFFFFFFF29
:1027C000FFFFFFFFFFFFFFFFFFFFFFFFFFFFFFFF19
:1027D000FFFFFFFFFFFFFFFFFFFFFFFFFFFFFFFF09
:1027E000FFFFFFFFFFFFFFFFFFFFFFFFFFFFFFFFF9
:1027F000FFFFFFFFFFFFFFFFFFFFFFFFFFFFFFFFE9
:10280000FFFFFFFFFFFFFFFFFFFFFFFFFFFFFFFFD8
:10281000FFFFFFFFFFFFFFFFFFFFFFFFFFFFFFFFC8
:10282000FFFFFFFFFFFFFFFFFFFFFFFFFFFFFFFFB8
:10283000FFFFFFFFFFFFFFFFFFFFFFFFFFFFFFFFA8
:10284000F5555FFFFFFFFFFFF5555FFFFFF555559E
:10285000555FFFFFFFFFFFD555FFFFFFFF5557FFF8
:10286000FFFFFFFFFFFFFFFFFFFFFFFFFFFFFFFF78
:10287000FFFF5555557FFFFFFFF55555557FFFF578
:102880005555555FFFFFFFFFFD55555FFFFFF555A0
:10289000557FFFFFFFFFFFFFFFFFFFFFFFFFFFFF72
:1028A000FFFFFFFD5555555FFFFFFFF55555555F80
:1028B000FFF55555555FFFFFFFFFD5555557FFFFF6
:1028C0005555555FFFFFFFFFFFFFFFFFFFFFFFFFB6
:1028D000FFFFFFFFFFF55555555FFFFFFFF555550E
:1028E0005557FFF55555555FFFFFFFFFD55555551A
:1028F000FFFF55555557FFFFFFFFFFFFFFFFFFFF8E
:10290000FFFFFFFFFFFFFFD5557FD55FFFFFFFF5FF
:102910005FFF5557FFF555FFFFFFFFFFFFFF5557BF
:10292000F5557FFD555FD555FFFFFFFFFFFFFFFF0B
:10293000FFFFFFFFFFFFFFFFFF5557FFFD5FFFFF9B
:10294000FFF5FFFFD557FFF555FFFFFFFFFFFFFD29
:10295000555FFD557FF5557FF555FFFFFFFFFFFFE5
:10296000FFFFFFFFFFFFFFFFFFFFFF555FFFFF5F61
:10297000FFFFFFF7FFFFD557FFF555FFFFFFFFFFF5
:10298000FFFD557FFF555FF555FFFD557FFFFFFFAD
:10299000FFFFFFFFFFFFFFFFFFFFFFFFFD555FFF93
:1029A000FFDFFFFFFFFFFFFFD557FFF555FFFFFFDD
:1029B000FFFFFFFD557FFF555FF555FFFD557FFF7D
:1029C000FFFFFFFFFFFFFFFFFFFFFFFFFFFFF555CB
:1029D000555FFFFFFFFFFFFFFFFF555FFFF55555F9
:1029E0005FFFFFFFFFFD557FFF555FF555FFFD556D
:1029F0007FFFFFFFFFFFFFFFFFFFFFFFFFFFFFFF67
:102A0000D555557FFFFFFFFFFFFFFD55557FFFF5B4
:102A1000555555FFFFFFFFFD557FFF555FF555FFEE
:102A2000FD557FFFFFFFFFFFFFFFFFFFFFFFFFFFE2
:102A3000FFFFFD557FFFFFFFFFFFFFFFFD5557FF26
:102A4000FFF55555557FFFFFFFFD555FFF555FF5BE
:102A5000557FFD557FFFFFFFFFFFFFFFFFFFFFFFDC
:102A6000FFFFFFFFFD557FFFFFFFFFFFFFFFFD554E
:102A7000557FFFF55555555FFFFFFFFD5557FF5536
:102A80005FF5555FFD557FFFFFFFFFFFFFFFFFFF76
:102A9000FFFFFFFFFFFFFD557FFFFFFFFFFFFFFF72
:102AA000FD55555FFFF5FFFD5557FFFFFFFF5555DE
:102AB00055555FFD555555557FFFFFFFFFFFFFFF44
:102AC000FFFFFFFFFFFFFFFFF55555FFFFFFFFFF74
:102AD000FFFFFFFFD557FFFFFFFF5557FFFFFFFF2A
:102AE000D55555555FFF555555557FFFFFFFFFFFE6
:102AF000FFFFFFFFFFFFFFFFFFFFD55555FFFFFF64
:102B0000FFFFFFFFFFFFF555FFFFFFFFD557FFFF5B
:102B1000FFFFF55555555FFFD55555557FFFFFFF15
:102B2000FFFFFFFFFFFFFFFFFFFFFFFFFD555FFF01
:102B3000FFFFFFFFFFFFFFFFF555FFFFFFFFD5572B
:102B4000FFFFFFFFFD555F557FFFF5557D55FFFFEB
:102B5000FFFFFFFFFFFFFFFFFFFFFFFFFFFFFF552F
:102B60005FFFFFDFFFFFFFFFFFFFF555FFFFFFFFE9
:102B7000D557FFFFFFFFFFFFFD557FFFFFFFF55517
:102B8000FFFFFFFFFFFFFFFFFFFFFFFFFFFFFFFF55
:102B9000FF5557FFFF5FFFFFFFDFFFFFF555FFDF2B
:102BA000FFFFD557FFFFFFFFFFFFFD557FFFFFFF33
:102BB000F555FFFFFFFFFFFFFFFFFFFFFFFFFFFFD9
:102BC000FFFFFF5557FFFD5FFFFFFFD5FFFFD55507
:102BD000FFD5FFFF555FFFD557FFFFFFF555FFFFFF
:102BE000FFFFD557FFFFFFFFFFFFFFFFFFFFFFFFC7
:102BF000FFFFFFFFFFD5557FD55FFFFFFFD55FFFCD
:102C00005557FFD57FFD555FFFD55FFFD7FF555562
:102C1000FFFF5FFD5557FFFFFFFFFFFFFFFFFFFFB8
:102C2000FFFFFFFFFFFFFFF55555555FFFFFFFD586
:102C300055555557FFD55555557FFF555FFFD55510
:102C40005557FFFF5555555FFFFFFFFFFFFFFFFF84
:102C5000FFFFFFFFFFFFFFFFFFFD5555555FFFFF24
:102C6000FFD55555555FFFD5555555FFFF557FFF8E
:102C7000D555555FFFFF5555557FFFFFFFFFFFFF00
:102C8000FFFFFFFFFFFFFFFFFFFFFFFF555555FF52
:102C9000FFFFFFD5555555FFFFD5555557FFFF553C
:102CA0007FFFD55555FFFFFF555557FFFFFFFFFF2E
:102CB000FFFFFFFFFFFFFFFFFFFFFFFFFFFFF555D8
:102CC0005FFFFFFFFFFF55555FFFFFFF55557FFF7C
:102CD000FF55FFFFD5555FFFFFFF55557FFFFFFFF6
:102CE000FFFFFFFFFFFFFFFFFFFFFFFFFFFFFFFFF4
:102CF000FFFFFFFFFFFFFFFFFFFFFFFFFFFFFFFFE4
:102D0000FFFFFD55FFFFFFFFFFFFFFFFFFFFFFFF7F
:102D1000FFFFFFFFFFFFFFFFFFFFFFFFFFFFFFFFC3
:102D2000FFFFFFFFFFFFFFFFFFFFFFFFFFFFFFFFB3
:102D3000FFFFFFFFFD55FFFFFFFFFFFFFFFFFFFF4F
:102D4000FFFFFFFFFFFFFFFFFFFFFFFFFFFFFFFF93
:102D5000FFFFFFFFFFFFFFFFFFFFFFFFFFFFFFFF83
:102D6000FFFFFFFFFFFFFD57FFFFFFFFFFFFFFFF1D
:102D7000FFFFFFFFFFFFFFFFFFFFFFFFFFFFFFFF63
:102D8000FFFFFFFFFFFFFFFFFFFFFFFFFFFFFFFF53
:102D9000FFFFFFFFFFFFFFFFFD57FFFFFFFFFFFFED
:102DA000FFFFFFFFFFFFFFFFFFFFFFFFFFFFFFFF33
:102DB000FFFFFFFFFFFFFFFFFFFFFFFFFFFFFFFF23
:102DC000FFFFFFFFFFFFFFFFFFFFF55FFFFFFFFFBD
:102DD000FFFFFFFFFFFFFFFFFFFFFFFFFFFFFFFF03
:102DE000FFFFFFFFFFFFFFFFFFFFFFFFFFFFFFFFF3
:102DF000FFFFFFFFFFFFFFFFFFFFFFFFF55FFFFF8D
:102E0000FFFFFFFFFFFFFFFFFFFFFFFFFFFFFFFFD2
:102E1000FFFFFFFFFFFFFFFFFFFFFFFFFFFFFFFFC2
:102E2000FFFFFFFFFFFFFFFFFFFFFFFFFFFFFFFFB2
:102E3000FFFFFFFFFFFFFFFFFFFFFFFFFFFFFFFFA2
:10374000FFFFFFFFFFFFFFFFFFFFC3FFC3FFFFFF01
:10375000FFFFFFFFC3FFFFFFFFFFFFFFFFFFFFFFB5
:10376000FFFFFFFFFFFFFFFFFFFFFFFFFFFFFFFF69
:10377000FFFFFFFFFFFFFFFFFFFFFFFFC3FFC3FFD1
:10378000FFFFFFFFFFFFC3FFFFFFFFFFC3FFFFFFC1
:10379000FFFFFFFFFFFFFFFFFFFFFFFFFFFFFFFF39
:1037A000FFFFFFFFFFFFFFFFFFFFFFFFFFFFC3FF65
:1037B000C3FFFFFFFFFFFFFFC3FFFFFFFFFFC3FFCD
:1037C000FFFFFFFFFFFFFFFFFFFFFFFFFFFFFFFF09
:1037D000FFFFFFC00FF00FC30C3F00FC30F00FF0F5
:1037E00003FFC00FC3C3FFF00FF003C00C0FF00FB7
:1037F000003C03FC03FFFFFFFFFFFFFFFFFFFFFF96
:10380000FFFFFFFFFFC3C3C3C3C30C3C3C3C00C36B
:10381000C3C3C3FFC3C3C3C3FFFFC3C3C3C3C3C3C4
:10382000FFC3C3F0F0F0FFFFFFFFFFFFFFFFFFFF4D
:10383000FFFFFFFFFFFFFFC3C3C3C3C30C3C003C3C
:103840003FC003C3C3FFC3C3F00FFFF003C3C3C331
:10385000C3C3F003C3F000F0FFFFFFFFFFFFFFFF54
:10386000FFFFFFFFFFFFFFFFFFC3C3C3C3C30C3C4A
:103870003FFC3FC3FFC3C3FFC3C3F00FFFC3C3C3BA
:10388000C3C3C3C3C3C3C3F0FFF0FFFFFFFFFFFF0A
:10389000FFFFFFFFFFFFFFFFFFFFFFC3C3C3C3F037
:1038A000F0FC3F3C3FC3F3C3C3FFC3C3FC3FFFC3B4
:1038B000C3C3C3C3C3C3C3C3C3F0FCF0FFFFFFFF55
:1038C000FFFFFFFFFFFFFFFFFFFFFFFFFFC00FF046
:1038D0000FF0F0FF00FC3FF00FF003FFC00FFC3FC4
:1038E000FFF003F003C3C3C3F003F03C03FC03FF8A
:1038F000FFFFFFFFFFFFFFFFFFFFFFFFFFFFFFC314
:10390000FFFFFFFFFFFFFFFFFFFFFFFFFFFFFFFFC7
:10391000F0FFFFFFFFFFFFFFFFFFFFFFFFFFFFFFC6
:10392000FFFFFFFFFFFFFFFFFFFFFFFFFFFFFFFFA7
:10393000FFC3FFFFFFFFFFFFFFFFFFFFFFFFFFFFD3
:10394000FFFFF0FFFFFFFFFFFFFFFFFFFFFFFFFF96
:10395000FFFFFFFFFFFFFFFFFFFFFFFFFFFFFFFF77
:10396000FFFFFFFFFFFFFFFFFFFFFFFFFFFFFFFF67
:10397000FFFFFFFFFFFFFFFFFFFFFFFFFFFFFFFF57
:10398000FFFFFFFFFFFFFFFFFFFFFFFFFFFFFFFF47
:10434000FFC3C3FFFFFFF87FFFFFFFFFFFFFFFFF7C
:10435000FFFFFFFFFFFFFFFFFFFFC3C3FFFFFFF8EC
:104360007FFFFFFFFFFFFFFFFFFFFFFFFFFFFFFFDD
:10437000FFFFFFC3C3FFFFFFF87FFFFFFFFFFFFF4C
:10438000FFFFFFFFFFFFFFFFFFFFFFFFC3C3F03E85
:1043900018700F03FFC21F0C3C27FFFFFFFFFFFF3A
:1043A000FFFFFFFFFFC3C3E01E18700E01FFC00F29
:1043B0000C3C061FFFFFFFFFFFFFFFFFFFFFC003D7
:1043C000C70E18787C70FFC30F0C3C3E1FFFFFFF29
:1043D000FFFFFFFFFFFFFFC003870E18787870FF15
:1043E000C30F0C3C3E1FFFFFFFFFFFFFFFFFFFFF60
:1043F000C003800E18787800FFC30F0C3C3E1FFFEF
:10440000FFFFFFFFFFFFFFFFFFC3C3800E18787899
:1044100000FFC30F0C3C3FFFFFFFFFFFFFFFFFFF4D
:10442000FFFFC3C387FE1878787FFFC30F0C3C3FA4
:10443000FFFFFFFFFFFFFFFFFFFFFFC3C387EE1874
:1044400078787EFFC30F0C3C3E1FFFFFFFFFFFFF8E
:10445000FFFFFFFFC3C3C3CE18787C3CFFC30F0C24
:104460003C3E1FFFFFFFFFFFFFFFFFFFFFC3C3E057
:104470000E00780E00FFC30F003C3E1FFFFFFFFF42
:10448000FFFFFFFFFFFFC3C3F01F087E0F01FFC345
:104490000F843C3E1FFFFFFFFFFFFFFFFFFFFFFFFB
:1044A000FFFFFFFFFFFFFFFFFFFFFFFFFFFFFFFF1C
:1044B000FFFFFFFFFFFFFFFFFFFFFFFFFFFFFFFF0C
:1044C000FFFFFFFFFFFFFFFFFFFFFFFFFFFFFFFFFC
:1044D000FFFFFFFFFFFFFFFFFFFFFFFFFFFFFFFFEC
:1044E000FFFFFFFFFFFFFFFFFFFFFFFFFFFFFFFFDC
:1044F000FFFFFFFFFFFFFFFFFFFFFFFFFFFFFFFFCC
:10450000FFFFFFFFFFFFFFFFFFFFFFFFFFFFFFFFBB
:10451000FFFFFFFFFFFFFFFFFFFFFFFFFFFFFFFFAB
:10452000FFFFFFFFFFFFFFFFFFFFFFFFFFFFFFFF9B
:10453000FFFFFFFFFFFFFFFFFFFFC03FFFFFC03F89
:10454000FC0003FFFFF80FFFF01FFFFFFFFFFFFF5F
:10455000FFFFFF0007FFFC0007FC0003FFFFE00375
:10456000FFC007FFFFFFFFFFFFFFFFFE0003FFFC91
:104570000003FC0003FFFF8001FF0003FFFFFFFFBC
:10458000FFFFFFFFFC0003FFFC0001FC0003FFFF37
:104590008000FF0001FFFFFFFFFFFFFFFFF8078321
:1045A000FFFC3F01FC0FFFFFFF01C07E0380FFFF08
:1045B000FFFFFFFFFFFFF01FE3FFFCFF81FC0FFF8A
:1045C000FFFE03E07C07C0FFFFFFFFFFFFFFFFF0E0
:1045D0003FF3FFFDFF81FC0FFFFFFE07F03C0FE004
:1045E0007FFFFFFFFFFFFFFFE03FFBFFFFFF81FCBF
:1045F0000FFFFFFE07F03C0FE07FFFFFFFFFFFFF15
:10460000FFC003FFFFFFFF03FC003FFFFE07F03C7E
:104610000FE07FFFFFFFFFFFFFFF8007FFFFFFE0CF
:1046200007FC000FFFFE07F03C0FE07FFFFFFFFFDE
:10463000FFFFFFE07FFFFFFFE01FFC0007FFFE031F
:10464000F03C07E07FFFFFFFFFFFFFFFE07FFFFF82
:10465000FFE007FC0003FFFE01F03C03E07FFFFFEB
:10466000FFFFFFFFFFE07FFFFFFFE003FCFE01FF16
:10467000FF00003E00007FFFFFFFFFFFFFFFC00FB6
:10468000FFFFFFFF81FFFF01FFFF80003F00007F72
:10469000FFFFFFFFFFFFFF800FFFFFFFFFC0FFFFD8
:1046A00081FFFFC0003F80007FFFFFFFFFFFFFFF94
:1046B000E03FFFFFFFFFC0FFFF81FFFFE0307FC053
:1046C00060FFFFFFFFFFFFFFFFF03FFBFFFFFFC0AB
:1046D000FFFF81FFFFFFE07FFFC0FFFFFFFFFFFF46
:1046E000FFFFF01FF3FFFBFFC0FBFF81FFFFFFE0B9
:1046F0007FFFC0FFFFFFFFFFFFFFFFF01FE3FFF89B
:10470000FF80F8FF03F81FFFC0FFFF81FFFFFFFFDF
:10471000FFFFFFFFF80783FFF83F01F87E03F83F34
:104720009F00FF3E01FFFFFFFFFFFFFFFFFC0003B5
:10473000FFF80001F80007F03F8001FF0003FFFFD2
:10474000FFFFFFFFFFFFFE0003FFF80003F8000F6D
:10475000F07F8003FF0007FFFFFFFFFFFFFFFFFF6A
:10476000000FFFF8000FF8001FF07F800FFF001F01
:10477000FFFFFFFFFFFFFFFFFFC03FFFFF003FFF07
:10478000007FF0FF803FFF007FFFFFFFFFFFFFFF85
:10479000FFFFFFFFFFFFFFFFFFFFFFE0FFFFFFFF48
:1047A000FFFFFFFFFFFFFFFFFFFFFFFFFFFFFFFF19
:1047B000FFFFFFFFE0FFFFFFFFFFFFFFFFFFFFFF28
:1047C000FFFFFFFFFFFFFFFFFFFFFFFFFFE1FFFF17
:1047D000FFFFFFFFFFFFFFFFFFFFFFFFFFFFFFFFE9
:1047E000FFFFFFFFFFFFE1FFFFFFFFFFFFFFFFFFF7
:1047F000FFFFFFFFFFFFFFFFFFFFFFFFFFFFFFC305
:10480000FFFFFFFFFFFFFFFFFFFFFFFFFFFFFFFFB8
:10481000FFFFFFFFFFFFFFFFC3FFFFFFFFFFFFFFE4
:10482000FFFFFFFFFFFFFFFFFFFFFFFFFFFFFFFF98
:10483000FFFFFFFFFFFFFFFFFFFFFFFFFFFFFFFF88
:10484000FFFFFFFFFFFFFFFFFFFFFFFFFFFFFFFF78
:10485000FFFFFFFFFFFFFFFFFFFFFFFFFFFFFFFF68
:104EA000FFFFFFFFFFFFFFFFFFFFFFFF0E14010AE1
:104EB00006040A0A0F03030C060A000E14010A4630
:104EC000048A4A0F83430C860A040E14018A0604DE
:104ED0008A4A0F83430C064A048E94018A06048A88
:104EE0004A0F83430C060A048E94018A06048A4AF8
:104EF0000F83430C060A04031D0101082337370101
:104F0000000000000000835D0181482377770100E5
:104F10000000000000031D010108233737010000D5
:104F200000000000444F00080000002018000000AE
:104F30006C0100085C4F00081800002060060000AB
:104F400088010008000000000102030401020304BC
:0C4F500006070809020406080000000023
:0400000508000131BD
:00000001FF
